:020000040800F2
:10000000781900200D020008D11600081515000807
:10001000CD16000815030008A531000800000000F7
:100020000000000000000000000000001D1A000891
:100030009D03000800000000ED190008511A000897
:1000400027020008270200082702000827020008EC
:1000500027020008270200082702000827020008DC
:1000600027020008270200082702000827020008CC
:1000700027020008270200082702000827020008BC
:1000800027020008270200082702000827020008AC
:10009000193100082702000827020008270200087B
:1000A000270200082702000827020008270200088C
:1000B000270200082702000827020008270200087C
:1000C000270200082702000827020008270200086C
:1000D000270200082702000827020008270200085C
:1000E000270200082702000827020008270200084C
:1000F000270200082702000827020008270200083C
:10010000270200082702000827020008270200082B
:100110002702000827020008251B00082702000804
:10012000270200082702000827020008270200080B
:1001300000F002F800F05AF80AA090E8000C82449F
:100140008344AAF10107DA4501D100F04FF8AFF27C
:10015000090EBAE80F0013F0010F18BFFB1A43F0A5
:1001600001031847E0310000003200000A444FF05C
:10017000000C10F8013B13F0070408BF10F8014B06
:100180001D1108BF10F8015B641E05D010F8016B4B
:10019000641E01F8016BF9D113F0080F1EBF10F8AF
:1001A000014BAD1C0C1B09D16D1E58BF01F801CBD2
:1001B000FAD505E014F8016B01F8016B6D1EF9D555
:1001C0009142D6D37047000000230024002500266A
:1001D000103A28BF78C1FBD8520728BF30C148BFAA
:1001E0000B6070471FB51FBD10B510BD00F058F86B
:1001F0001146FFF7F7FF03F071F800F076F803B44B
:10020000FFF7F2FF03BC00F07DF8000009488047CB
:1002100009480047FEE7FEE7FEE7FEE7FEE7FEE7E8
:10022000FEE7FEE7FEE7FEE704480549054A064B00
:1002300070470000D51A000831010008781300202B
:100240007819002078150020781500204FF0000262
:1002500000B5134694469646203922BFA0E80C50BC
:10026000A0E80C50B1F12001BFF4F7AF090728BF97
:10027000A0E80C5048BF0CC05DF804EB890028BF13
:1002800040F8042B08BF704748BF20F8022B11F03C
:10029000804F18BF00F8012B7047704770477047B8
:1002A000754600F02BF8AE4605006946534620F02F
:1002B0000700854618B020B5FFF7B6FFBDE820401F
:1002C0004FF000064FF000074FF000084FF0000B12
:1002D000AC46ACE8C009ACE8C009ACE8C009ACE881
:1002E000C00921F007018D46704710B50446AFF3F1
:1002F00000802046BDE81040FFF781BF00487047EE
:100300007801002001491820ABBEFEE7260002005C
:1003100070470000FEE70000002070470020704793
:1003200010B540F6FC54C2F2000440F6FC11C2F2D3
:1003300000012046002201F063FD40F2FC51C2F2B0
:100340000001204601F056FD002010BD10B540F61A
:10035000FC54C2F200040146204601F04BFD204649
:1003600001F02AFD002010BD10B540F6FC52C2F28B
:100370000002D2F8B822D2F81432002B1CBF0120A0
:1003800010BD40F6FC54C2F200040A460146204665
:1003900001F036FD204601F0B5FD10BD70470000AC
:1003A000EFF3108072B600BFFEE70000B0B54FF269
:1003B000E871C1F6FF7108688A68801808BFB0BD8F
:1003C00040F25815C2F200054C68A91C082201F041
:1003D000A3F805F112012046042201F09DF8B0BDFA
:1003E000B0B5044600F018F9054640F27210C2F2AA
:1003F00000000078611C18BF044400BF00F00CF935
:10040000401BA042FAD3B0BD2DE9F04F83B00C6879
:10041000002C00F0EA80A0F18042A2F5843240F284
:10042000004E4FEAB22241F60047C4F2010E00929C
:10043000C4F20107062200254FF001094FF0000B1E
:100440004FF0000AB84208BF0522019209E000BF40
:100450000C680BF1010B34FA0BF205F1040500F006
:10046000C48009FA0BF814EA080CF1D04C684FF676
:10047000FF72C1F21002944210DC122C50D8DFE857
:1004800004F0330A41454F4F4F4F4F4F4F4F4F4F9F
:100490004F4F4F484C00D1F80CA041E04FF6FF728F
:1004A000C1F2210294420FDC0022C1F211029442F7
:1004B0001AD00022C1F21202944215D00022C1F2D9
:1004C0002102944210D02BE00022C1F22202944279
:1004D0000AD00022C1F23102944205D00022C1F2BA
:1004E000320294421CD100BF8C6844B1012C14BF6D
:1004F000C0F81480C0F810804FF0080A10E04FF0E8
:10050000040A0DE0CC6804F1080A09E04FF0000A83
:1005100006E0CC6804F1040A02E0CC6804F10C0A9D
:100520002C460746BCF5807F24BF203C04373A6840
:100530000F2303FA04F6B2430AFA04F422433A60A2
:10054000CA79D2067FF584AF41F21804C4F20204DE
:1005500022684FF6084842F0010222602268CFF676
:10056000FF7802F001020292029A2BF00302724419
:1005700052F8084005F00C0603FA06F7009BBC434E
:10058000019F052B38BF1F4607FA06F6344342F891
:1005900008404C68E203DEF8002054BF22EA0C0752
:1005A00042EA0C07A203CEF80070DEF8042054BF24
:1005B00022EA0C0742EA0C07E202CEF80470DEF8E9
:1005C000082054BF22EA0C0742EA0C07A20240F2BC
:1005D0000C44CEF80870C4F20104226854BF22EA29
:1005E0000C0242EA0C02226032E703B0BDE8F08F51
:1005F0008068084018BF012070470000C2681423BB
:100600000A4208BF1023C15070470000002A08BFEB
:10061000090401617047000041F27430C2F2000029
:100620000068704740F2721041F27431C2F200006B
:10063000C2F2000100780A681044086070470000A8
:1006400080B542F20000C4F20200016841F01001DE
:100650000160032000F066F80F2000F005F800F0BC
:100660002BF8002080BD0000B0B540F27212C2F23B
:10067000000240F21C011278C2F200014FF47A73BA
:100680000968B3FBF2F20446B1FBF2F1084600F050
:10069000F5FD0F2C4FF001050CD858B94FF0FF3085
:1006A00021460022002500F02DF840F27410C2F21D
:1006B000000004602846B0BD82B041F21800C4F2C8
:1006C00002000168022241F001010160016801F0AD
:1006D000010101910199416841F0805141604068F8
:1006E00000F08050009000980420C4F201000168DE
:1006F00062F31A61016002B07047000080B502F039
:1007000053FD80BD70B514460D46064602F05CFDF3
:100710002946224600F0DEFF0146304602F05CFD2D
:1007200070BD000080B502F069FD80BD01F0070CCE
:1007300000EB4C1C0CF1280C00EB4110090658BFD3
:1007400000F5947C4AB101208CF80C00180CACF830
:100750000A000020ACF80830704700208CF80C002C
:100760000020ACF8063070477047000080B5D0F824
:10077000683200EB4110C26B184601F0CFFD80BD1E
:1007800080B5D0F8683200EB4110D0F83C21184613
:1007900001F026FE80BD000010B50446080601F0F9
:1007A000070004EB401205D402F59471002382F88F
:1007B000293104E0012302F1280182F8293094F85C
:1007C00028220870012A04BF022010BD20680122DF
:1007D00084F8282202F020FA002084F8280210BDB4
:1007E000B0B50446406801F00F02824284BF012088
:1007F000B0BD080601F0070004EB401205D402F575
:100800009471002382F8293104E0012302F12801C8
:1008100082F8293094F828220025012A8D7008706A
:1008200004BF0220B0BD2068012284F8282202F013
:1008300095FA284684F82852B0BD000001F007015F
:1008400000EB4110D0F8440170470000B0B50546F8
:10085000080601F0070005EB401C05D40CF5947167
:1008600000248CF8294104E001240CF128018CF8C3
:1008700029404C780870002C0A61CB7018BFC881E1
:10088000022B04BF0020087195F82802012804BF3C
:100890000220B0BD2868012285F8282202F0A0F8C5
:1008A000002085F82802B0BD10B501F0070C00EB60
:1008B0004C1E00680EF594710024CEF83C21CEF851
:1008C0004031CEF844418EF829418EF828C102F01B
:1008D0009FFA002010BD0000B0B50446406801F04A
:1008E0000705854284BF0120B0BD080607D404EB8C
:1008F000411000F59471002280F8292106E004EBF4
:100900004510012200F1280180F8292094F82802DE
:10091000012201288A700D7004BF0220B0BD20683A
:1009200084F8282202F05AFA25B9206804F50C71DF
:1009300002F012FA002084F82802B0BD80B501F060
:10094000070C00EB4C1101F828CF01F1140E4FF009
:10095000000C8EE80C10006801224A7002F058FA70
:10096000002080BD10B50446006802F0DDFB0004E5
:1009700002D5204600F0C4FE206802F0D5FB4005F9
:100980000DD52068B0F8441021F48061A0F844101F
:10099000204600F015F92046002100F02FF92068CC
:1009A00002F0C2FB400406D52068B0F8441021F4E0
:1009B0008041A0F84410206802F0B6FB800406D500
:1009C0002068B0F8441021F40051A0F844102068C9
:1009D00002F0AAFBC00416D52068B0F8401021F040
:1009E0000401A0F84010B0F8401021F00801A0F870
:1009F0004010204600F0F6F82068B0F8441021F4CA
:100A00008051A0F84410206802F08EFB000520D52C
:100A10002068B0F8401041F00801A0F84010B0F88C
:100A2000441021F40061A0F84410B0F8401041F0E7
:100A30000401A0F8401002F077FBC00406D520683E
:100A4000B0F8441021F48051A0F84410204600F082
:100A50000DF9206802F068FB800509D52068B0F820
:100A6000441021F40071A0F84410204600F0C0F8B2
:100A7000206802F059FBC00558BF10BD2068B0F8CF
:100A8000441021F48071A0F8441010BDF0B585B079
:100A9000F8B1044690F8290228B9002084F8280209
:100AA000204600F06BF8032084F82902206802F049
:100AB00049F994E82F50D4E907678DE82050CDE933
:100AC000036702F0A7F830B1022084F8290201255B
:100AD00050E001254EE020680021002502F042FB95
:100AE0006168A1B1616801200023002204EB431773
:100AF00087F82820D3B20132FB86D3B2994287F817
:100B0000290087F82B50C7E90E553D64EED899B1FE
:100B100000200023002200BF04EB431787F82821A0
:100B20000132D3B2994287F8290187F82B01C7E92E
:100B30004E00C7F84001EFD804F10807D4E9056575
:100B400020688CCFD4E907CECDE9007602AE86E8E6
:100B5000205002F0E7F820B1022084F82902012594
:100B600008E00025012084F8245084F82902206838
:100B700002F0D6F8284605B0F0BD000080B582B07E
:100B8000006845F60041C4F20001884201D002B07D
:100B900080BD41F21C00C4F202000168002241F451
:100BA000000101600068002100F40000019001983C
:100BB0001420FFF7A7FD1420FFF7A0FD02B080BDB1
:100BC00010B504468068022818BFFFF7E9FBD4F887
:100BD0006802012101F0F6FCD4F8680201F0B0FCD3
:100BE00010BD000080B5D0F8680201F0D3FC80BDD4
:100BF00080B5D0F8680201F0D7FC80BD10B504467E
:100C000090F82802012804BF022010BD012084F8BA
:100C1000280284F82410206802F0A6FA002084F844
:100C2000280210BD80B5D0F8682200F50C7110467E
:100C300001F0D4FC80BD000010B5044690F82802F5
:100C4000012804BF022010BD012084F8280220469C
:100C50000121FFF789FD206802F060F8206802F0AA
:100C600051FA002084F8280210BD000010B5044697
:100C7000D0F8680201F0F2FCA069002808BF10BD9E
:100C80004EF61050CEF20000016841F006010160FE
:100C900010BD00002DE9F04182B00446007841F219
:100CA0001C06C007C4F202064AD0306810F0805813
:100CB00008D1306840F080503060306800F08050DB
:100CC0000190019847F20007C4F200073868C00598
:100CD00012D4386840F480703860FFF79DFC0546F8
:100CE0003868C00508D4FFF797FC401B6428F7D983
:100CF000032002B0BDE8F081706810F4407012D09B
:100D0000616801F4407188420DD0706840F2404241
:100D1000C4F24222012320F4407113600023C00773
:100D20001360716029D17068616820F440700843D5
:100D3000B8F1000F706003D1306820F0805030604F
:100D40002068810707D556F8181CA26821F4404195
:100D5000114346F8181CC00603D4002002B0BDE8B9
:100D6000F08156F8180C616920F48000084346F8B9
:100D7000180C002002B0BDE8F081FFF74DFC0546DD
:100D800041F2883770688007CDD4FFF745FC401BDF
:100D9000B8424FF00300F5D9ECE700002DE9F0432D
:100DA00081B0002800F0898042F20008C4F20208F5
:100DB0000446D8F800000D4600F0070088420CD227
:100DC000D8F8000020F007002843C8F80000D8F841
:100DD000000000F00700A8426FD1206841F204092A
:100DE0008107C4F2020917D5410705D5D9F80010CB
:100DF00041F4E061C9F80010010705D5D9F80010E9
:100E000041F46051C9F80010D9F80010A26821F02F
:100E1000F0011143C9F80010C00745D1D8F800000F
:100E200000F00700A8420CD9D8F8000020F0070015
:100E30002843C8F80000D8F8000000F00700A842D6
:100E40003BD12068410707D5D9F80010E26821F4AA
:100E5000E0611143C9F80010000708D5D9F8000077
:100E6000216920F4605040EAC100C9F8000000F098
:100E70004FF8D9F8001043F23432C1F30311C0F631
:100E80000002515C40F21C0220FA01F140F27410A1
:100E9000C2F200000068C2F200021160FFF7E4FB3A
:100EA000002001B0BDE8F0836068022809D0012865
:100EB00029D159F8041C890307D4012001B0BDE8E9
:100EC000F08359F8041C8901F7D5D9F8001021F0F6
:100ED00003010843C9F80000FFF79EFB064641F2F4
:100EE000883700BFD9F80000616800F00C00B0EB53
:100EF000810F93D0FFF790FB801BB842F2D90320FB
:100F000001B0BDE8F08359F8041C8907D5D5DCE7AA
:100F100041F2040CC4F2020CDCF8003003F00C00C7
:100F2000082841F20020C0F27A0018BF7047C3F3CE
:100F300083420AA18A5CD90305D440F60010C0F2AE
:100F40003D0050437047DCF8001008A3C1F3404156
:100F5000595C5043B0FBF1F0704700BF0203040539
:100F6000060708090A0B0C0D0E0F101001020000F5
:100F70002DE9F04182B0002800F0C48004460078DA
:100F800041F20006C007C4F2020643D0706800F0C8
:100F90000C00042817D0706800F00C00082802D15B
:100FA0007068C0030FD465682DB1B5F5A02F10D0BF
:100FB000B5F5803F11D0306820F480303060306863
:100FC00020F480200CE03068800323D5606808BBE3
:100FD00098E0306840F480203060306840F4803021
:100FE0003060FFF719FB002D054610D030688003F4
:100FF00010D4FFF711FB401B6428F7D904E100BFB0
:10100000FFF70AFB401B64284FF0030077D83068D5
:101010008003F5D42078800718D5706810F00C0F85
:1010200007D0706800F00C00082826D17068C00353
:1010300023D43068800702D52069012862D1306846
:10104000616920F0F80040EAC100306020780007B4
:101050003DD5A06938B30020C4F242200121C0F878
:101060008014FFF7D9FA0546706A80072DD4FFF780
:10107000D3FA401B0228F7D9C6E02069002840F2C5
:101080000000C4F2422000F0968001210160FFF7C9
:10109000C3FA054630688007D1D4FFF7BDFA401B7C
:1010A0000228F7D9B0E00020C4F242200021C0F8A5
:1010B0008014FFF7B1FA0546706A800707D5FFF77D
:1010C000ABFA401B0228F7D99EE000F091FC207893
:1010D00040071BD4E5698DB1706800F00C0008284A
:1010E00047D1012D0ED07068216A00F480328A4207
:1010F00008D1616A00F47010884203D1002002B068
:10110000BDE8F081012002B0BDE8F081F06910F087
:10111000805808D1F06940F08050F061F06900F02B
:1011200080500190019847F20007C4F20007386828
:10113000C00510D4386840F480703860FFF76CFA4E
:10114000054600BF3868C00505D4FFF765FA401BA7
:101150006428F7D958E0E5681DB1052D3CD0012D74
:101160003ED0306A20F001003062306A20F0040086
:1011700039E00027C4F2422700203866FFF74CFA16
:10118000022D05460CD100BF3068800154D5FFF711
:1011900043FA401B02284FF00300F5D9AFE700BF28
:1011A00030688001AAD5FFF737FA401B02284FF0BC
:1011B0000300F5D9A3E700210160FFF72DFA0546EA
:1011C000306880077FF542AFFFF726FA401B022800
:1011D0004FF00300F4D992E7306A40F00400306227
:1011E000306A40F001003062FFF716FA002D054624
:1011F00041F2883714D000BF306A800713D4FFF75C
:101200000BFA401BB842F7D9032002B0BDE8F081C9
:10121000FFF702FA401BB8424FF003003FF66FAFF2
:10122000306A8007F4D4B8F1000F7FF453AFF0694F
:1012300020F08050F0614DE7206AB0F5803F05D185
:101240007168A26821F40031114371607168626AAB
:1012500021F4741110430843706001203866FFF7D1
:10126000DBF90446306880013FF548AFFFF7D4F959
:10127000001B02284FF00300F4D940E780B500F0CE
:10128000CFFB80BD704700007047000010B590F89C
:101290003C20012A4FF0020216D080F83D2002685F
:1012A0005368D2F808C023F0700ED1E900342CF056
:1012B000800143EA0E032143536091600121002223
:1012C00080F83D1080F83C20104610BD002804BF77
:1012D0000120704710B5044690F83D0028B9002061
:1012E00084F83C00204600F00DF8022084F83D0010
:1012F0002068211D00F01EFC012084F83D00002024
:1013000010BD000080B582B0006841F20001C4F257
:101310000001884201D002B080BD41F21C00C4F23D
:1013200002000168002241F0100101600068002104
:1013300000F01000019001983620FFF7E3F9362005
:10134000FFF7DCF902B080BD0068C16841F001011F
:10135000C160816801F00701062903D0016841F0EE
:1013600001010160002070477047000010B504467D
:1013700000680169890744BFC1685FEA817138D498
:1013800020680169490744BFC1685FEA41713CD4E4
:1013900020680169090744BFC1685FEA017141D44F
:1013A00020680169C90644BFC1685FEAC16145D4CC
:1013B00020680169C9071CBFC1685FEAC1714AD1D1
:1013C00020680169090644BFC1685FEA016149D428
:1013D00020680169490644BFC1685FEA416148D499
:1013E00020680169890644BFC1685FEA816147D40A
:1013F00010BD6FF002010161012121778069800732
:1014000045D02046FFF7B0FF47E06FF004010161CF
:1014100002212177806910F4407F41D02046FFF7F8
:10142000A3FF43E06FF00801016104212177C06947
:1014300080073ED02046FFF797FF40E06FF0100195
:10144000016108212177C06910F4407F3AD020461D
:10145000FFF78AFF3CE06FF001010161204600F0D8
:101460003FF8ADE76FF0800101612046FFF70AFF0A
:10147000AEE76FF040010161204600F049F8AFE7A8
:101480006FF0200101612046FFF7FEFE10BD2046EF
:1014900000F022F8204600F021F8002020776FE7C6
:1014A000204600F019F8204600F018F800202077B8
:1014B0006EE7204600F010F8204600F00FF80020FC
:1014C00020776DE7204600F007F8204600F006F888
:1014D000002020776CE70000704700007047000094
:1014E00080B541F22C31C2F20001884200D080BDAB
:1014F00040F2D810C2F20000018801318AB2142AE9
:10150000018018BF80BD0021018001F08FFE80BDE9
:1015100070470000FEE7000010B5002A08BF10BDAC
:1015200002394FF0370C4FF0000E00BF0CEB107477
:10153000B0F1204F4FEA107338BF03F1300401F8C7
:10154000024F0001013A81F801E0EFD110BD000027
:101550002DE9F04786B0002741F21800CDE9047765
:10156000CDE90277C4F20200016840F6000941F0BB
:10157000100101600168C4F2010901F0100101913C
:101580000199016809F5406A41F020010160016894
:10159000012201F020010191019901684FF0040836
:1015A00041F0040101600068042100F00400019092
:1015B000019850460125FFF729F84FF4005002AE7C
:1015C000CDE9020709F5006031460495FEF71CFFDE
:1015D000022448463146CDE902570494FEF714FF31
:1015E00048463146CDE902470495FEF70DFF03203A
:1015F000CDE902850590504631460495FEF704FF7B
:1016000006B0BDE8F087000010B582B041F22C3082
:1016100041F20001C2F20000C4F20001002447229E
:1016200040F2E73380E816008021CDE90044C36032
:101630008161FFF74BFE002818BFFEF7B1FE41F2B3
:101640002C30C2F200006946CDE90044FFF71EFECF
:10165000002818BFFEF7A4FE02B010BD80B540F60A
:10166000FC5040F20001C2F20000C2F20001002270
:1016700000F02CFE002818BFFEF792FE40F6FC504A
:1016800040F22001C2F20000C2F2000101F004F8B1
:10169000002818BFFEF784FE40F6FC5040F24411CB
:1016A000C2F20000C2F2000100F09CFB002818BF4B
:1016B000FEF776FE40F6FC50C2F2000001F076F82C
:1016C000002818BFFEF76CFE80BD0000FEE700009A
:1016D000FEE7000000F0070080F00703042B28BF9E
:1016E00004234FF0FF3C03380CFA03F338BF00200B
:1016F000994381400CFA00F022EA00000843704749
:101700002DE9F04F81B004460068B0F94410B1F102
:10171000FF3F02DD01B0BDE8F08F4FF0FF3504F56B
:101720000C7140F60F79009107E0FFF707F900BF51
:101730002068B0F94410A942ECDCB0F8442012F063
:101740000F0A33D030F82A804FEA4A0B5FEA08418B
:1017500040F1E58030F81B1004EB4A1701EA09015B
:10176000803120F81B1097F8341140F60F750029CE
:1017700007F5947900F0898099F8001030F821205D
:10178000B0F85030520403EBC10100EB410100F10D
:101790009180B1F80C646FF39F26002E00F09680C4
:1017A000D7F83C11B7F832218DE000BF0188D2068E
:1017B0002CD401EA090101F500410180B0F8500084
:1017C00094F82810226800EBC10002EB4000B0F84A
:1017D0000404E16B6FF39F2060640844E0632046DB
:1017E0000021FEF7C3FF94F824000028A0D0206C4D
:1017F00000289DD194F82400216840F08000C0B2F8
:10180000A1F84C00002084F8240091E70A0500F1BB
:10181000AD8009048CD5018801EA0901803101807D
:10182000B0F8501094F82821236801EBC20103EBB3
:101830004101B1F80C346FF39F23C4F844318BB1EC
:10184000D4F83C1171B1B4F82E2101F071FCD4F838
:101850003C01D4F844110844C4F83C01204600215E
:10186000FEF78EFF2068D4F83831B0F85010002B06
:1018700000F20C4200F098803E2B00F2A08003F0B2
:10188000010707EB53039B02A4E0B0F8501099F84E
:10189000002001EBC20100EB4101B1F80C646FF3D1
:1018A0009F26F6B1D7F83C11B7F82E21334601F048
:1018B0003FFC16E0B1F804646FF39F2636B1D7F809
:1018C0003C11B7F83021334601F032FC206899F81A
:1018D000001048F2C00330F821202A401A4320F8B3
:1018E0002120D7F84411D7E94F0331448219C7F8B2
:1018F0004411C7F83C211BB1D7F83801B04205D9D3
:1019000099F800102046FEF73BFF04E099F800101C
:101910002046FEF7C9FF4FF0FF3540F60F795FEA2A
:1019200008607FF505AF206804EB4A1730F81B10FC
:1019300001EA090101F5004120F81B10B0F8502020
:1019400097F8281002EBC10200EB4200B0F8040443
:101950006FF39F207864D7E90F230244002B2046C1
:10196000FA637FF4E2AEFEF701FFE1E6B0F8501053
:1019700094F82821236801EBC20103EB4101B1F87F
:101980000C34B4F82E2100996FF39F23C4F844312E
:1019900001F0CEFB2068018801EA09018031018055
:1019A0002046FFF73FF9C3E68B5A48F2000723F4BD
:1019B000F8438B528B5ACFF6FF773B430AE05F091F
:1019C000DE0608BF05EB531748F20003CFF6FF739E
:1019D00043EA87238B52018843F60F72114048F285
:1019E000C00202F53F5251400180A1E6704700005D
:1019F00081B040F21C00C2F20000006844F6D351EE
:101A0000C1F26201A0FB0101480A009000BF0098EA
:101A1000411E00280091F9D101B0704770470000C5
:101A2000B0B501380024B4EB106F1CBF0120B0BD6D
:101A30004EF21005CEF2000568604FF0FF300F2126
:101A400001F0CAFB0720AC6028602046B0BD000052
:101A500080B5FEF7E7FD80BD70B596B00CAC2046B2
:101A60002821FEF7F3FB002501204FF480310C9074
:101A7000CDE90D15109002264FF4E010CDE9136169
:101A8000159020460B95CDE90955CDE90755CDE9CF
:101A90000555CDE90355CDE90155FFF769FAB8B908
:101AA0000F20CDE907064FF480600995CDE90A05BE
:101AB00007A80221FFF772F950B910200190002009
:101AC000069001A8FFF7E6F8002804BF16B070BD25
:101AD000FEF766FC41F20000C4F202000168002239
:101AE00041F0010101604168CFF6FF021140416001
:101AF00001684FF6FF72CFF6F6621140016001688F
:101B000021F480210160416821F4FE0141604FF41D
:101B10001F0181604EF60850CEF200004FF00061C8
:101B20000160704780B541F22C30C2F20000FFF72F
:101B30001DFC80BD10B540F6FF3E0368C4F2000EE8
:101B400043F2004C7045C4F2010C20DCB0F1804F30
:101B50002BD040F20042C4F20002904225D040F661
:101B60000002C4F2000290421FD0704523DCB0F1A5
:101B7000804F2ED040F20042C4F20002904228D0A2
:101B800040F60002C4F20002904222D025E040F666
:101B90000042C4F20002904207D0604505D042F6F0
:101BA0000042C4F201029042DFD14A6823F0700380
:101BB00013437045DBDD40F60042C4F20002904260
:101BC00007D0604505D042F60042C4F201029042BF
:101BD00003D1CA6823F44073134323F080024B6996
:101BE000D1F800E08C681A4360450260C462C0F816
:101BF00028E005D042F60042C4F20102904201D131
:101C0000096901630121416110BD000010B5D0F8E0
:101C1000B822B2B101EB810300EB830C5CF81C4FDE
:101C200054B1D0F8C03203EB4113D3F838E0B4FB21
:101C3000FEF303FB1E4333B100242046C2F81442D6
:101C400010BD022010BD002400220023CCF800406B
:101C500000F00EFD204610BDB0B5D0F8B8520446D5
:101C600000F002FCD4F8B812C5F80C0249B1D4F85F
:101C7000BC0205F50371C268D5F804029047002044
:101C8000B0BD0220B0BD0000B0B58121044600F017
:101C90003DFB002520460121E56200F037FB204690
:101CA0008221C4F86C5100F031FBD4F8B8022564ED
:101CB00048B1D4F8BC0240688047D4F8B80200F0BC
:101CC00087FEC4F8B8520020B0BD000010B5D0F8AF
:101CD000BC1269B1D0F8B84294F80002FF2807D0CE
:101CE0008B6894F8012221469847FF2084F800026F
:101CF000002010BD014640F2E0000A22C2F20000BE
:101D00000A807047014640F258004322C2F20000A8
:101D10000A807047014640F29C004322C2F2000054
:101D20000A807047014640F2EC004322C2F20000F4
:101D30000A807047F0B581B00546007C4027002836
:101D400008BF4FF400772846812102223B464024F9
:101D500000F0E2FB01262846012102223B46EE620A
:101D600000F0DAFB2846822103220823C5F86C61C3
:101D700000F0D2FB4FF407702E6400F02BFEC5F884
:101D8000B802A8B10746D5F8BC0200688047002613
:101D9000C7F81462C7F81862287CD7F80422002814
:101DA00008BF4FF4007428460121234600F0C0FB11
:101DB000304601B0F0BD000080B5D0F8B81271B166
:101DC00090F810C0D1F8042240230121BCF1000F8B
:101DD00008BF4FF4007300F0ABFB002080BD022071
:101DE00080BD000000290EBF0220C0F8BC120020F8
:101DF00070470000D0F8B8220020C2F804127047E3
:101E0000D0F8B8320020C3F80812C3F81022704787
:101E100070B582B00446D0F8B86208780D4600224A
:101E200010F060018DF80720ADF8042010D02029B3
:101E30001FD1EA881AB300062AD46878314686F89A
:101E40000002204686F8012200F0AEF8002455E09A
:101E500068780B2829D00A282DD0C0BB94F89C02A2
:101E600003283AD101A92046022200F0B7F8002445
:101E700044E02046294600F08DF802243EE0D4F8E4
:101E8000BC0229468368687800220024984735E020
:101E9000D4F8BC023146836868789847EA882046BF
:101EA000314600F09BF8002428E094F89C020328B7
:101EB00019D1002422E094F89C02032819D10DF1D5
:101EC00007012046012200F089F8002416E0204690
:101ED000294600F05FF8022410E02046294600F071
:101EE00059F802240AE02046294600F053F802245B
:101EF00004E02046294600F04DF80224204602B0B6
:101F000070BD000080B5D0F8B8223AB1D2F81412F2
:101F100000294FF0010103D0084680BD022080BD9A
:101F2000C2F81412D2F81012D2F8082201638BB250
:101F3000812100F09DFB0021084680BD80B5D0F8CE
:101F4000B42252689047002080BD000080B590F810
:101F50009C22013A022A09D84988012918BF80BD6C
:101F60000021C0F8A41200F047F880BD00F012F87C
:101F700080BD000080B513460A46002100F0D8FA63
:101F8000002080BD80B513460A46002100F070FB9A
:101F9000002080BD10B58021044600F04FFB204694
:101FA000002100F04BFB10BD80B513460A4603210B
:101FB000C0F894120021C0E9573300F0B9FA0020AC
:101FC00080BD000080B50521C0F8941200210022D8
:101FD000002300F0ADFA002080BD000080B513465C
:101FE0000A460221C0F894120021C0E9073300F02C
:101FF0003FFB002080BD000080B50421C0F8941292
:1020000000210022002300F033FB002080BD0000EF
:1020100010B540F2DC14C2F200040A4602A02146C8
:1020200000F024F9204610BD43444320436F6E6600
:102030006967000040F230101222C2F200000A80EC
:102040007047000010B540F2DC14C2F200040A46EA
:1020500002A0214600F00AF9204610BD4344432067
:10206000496E7465726661636500000040F2541049
:102070000422C2F200000A807047000010B540F24E
:10208000DC14C2F200040A4602A0214600F0EEF879
:10209000204610BD53544D6963726F656C6563745F
:1020A000726F6E696373000010B540F2DC14C2F207
:1020B00000040A4602A0214600F0D8F8204610BDD0
:1020C00053544D3332205669727475616C20436FDE
:1020D0006D506F727400000080B51A200880FEF702
:1020E00065F940F25810C2F2000080BD80B5C98881
:1020F000012910D190F89C124A1E022A04D2002213
:10210000014641F8082F02E0032904D1011D0122F4
:10211000FFF764FF80BDFFF73DFF80BDB0B582B023
:10212000044648880D464FF0FF3101EB1021002294
:102130000629ADF8062053D8DFE801F00414085250
:1021400052212A00D4F8B002026841E0C0B205284A
:1021500046D8DFE800F003292D313539D4F8B00234
:10216000426834E0217CD4F8B40200290CBF816AB3
:10217000C16A0DF1060088470146022012E0207C6A
:1021800070BBD4F8B402416B0DF10600884723E020
:10219000207C28BBD4F8B402016B0DF106008847FF
:1021A00001460720487018E0D4F8B00282680EE0BB
:1021B000D4F8B002C2680AE0D4F8B002026906E0BE
:1021C000D4F8B002426902E0D4F8B00282693AB1B0
:1021D000207C0DF1060190470146012030B914E042
:1021E0002046FFF7D7FE0021002070B1BDF80600A1
:1021F00048B1EA883AB1904238BF02462046ADF86D
:102200000620FFF7EBFEE88808B102B0B0BD20461B
:10221000FFF7F2FE02B0B0BD017849B1411E0020C7
:102220008A780130002A01F10101F9D1C0B270476A
:102230000020C0B27047000080B590F89C22013A9F
:10224000022A0FD8C98802290CD1D0F8A41203227F
:10225000002908BF0122014641F80C2F0222FFF796
:10226000BDFE80BDFFF796FE80BD000070B5F0B1E9
:10227000164605460C46FFF7CFFF022101EB400052
:1022800030802070032060702878002808BF70BD5F
:10229000691E0222002300BFD6B246F00105A055F8
:1022A000635588780232002801F10101F4D170BD34
:1022B000032884BF0220704740F20021C000C0F212
:1022C000012121FA00F0C0B270470000002804BFCD
:1022D0000220704780B5D0F8B432002B1CBF002319
:1022E000C0F8B432002918BFC0F8B012012180F83C
:1022F0009C12027000F0BEF8002080BD80B5D0F8BE
:10230000C002FEF76DFAFFF7D3FF80BD80B5D0F8AD
:10231000C002FEF741FAFFF7CBFF80BDB0B504461F
:1023200069B1D4F8B40242693AB194F89C02032826
:1023300003D120469047002050E00220B0BDD4F8E1
:102340009402002818BF042804D12046802100F000
:1023500075F93AE0022838D1D4E90810814208D949
:10236000081A83B22062204611461A46FFF70AFE79
:1023700013E0E169814217D3B1FBF0F202FB1010C8
:1023800090B9D4F8980281420ED220460021002252
:102390000025FFF7F7FDC4F89852204600210022DF
:1023A000002300F0C5F810E0D4F8B402C16829B1E8
:1023B00094F89C02032801D12046884720468021BA
:1023C00000F03CF92046FFF7FDFD94F8A00201283B
:1023D0004FF0000004BF84F8A002B0BDB0BD000003
:1023E000B0B5044669B1D4F8B40282693AB194F840
:1023F0009C02032803D12046904700251AE00220C2
:10240000B0BDD4F894020025052815D0032811D1B9
:10241000D4E95810814217D9091AC4F860118142D1
:1024200038BF084683B2204611461A46FFF7A2FD80
:102430000020B0BD2846B0BD20460021C4F894520B
:1024400000F0FCF82846B0BDD4F8B402016929B107
:1024500094F89C02032801D1204688472046FFF7C4
:10246000CBFD0020B0BD000080B5D0F8C002FEF763
:10247000E5F980BD10B5044641F2C00045F60041C3
:10248000C2F20000C4F20001C0F86842C4F8C00201
:102490000822022380E80E000021C0E90611016233
:1024A000FEF7F4FA002818BFFDF77AFFD4F8C0024F
:1024B000002100221823FEF739F9D4F8C002802148
:1024C00000225823FEF732F9D4F8C00281210022FD
:1024D000C023FEF72BF9D4F8C002012100224FF4EB
:1024E0008873FEF723F9D4F8C002822100224FF44A
:1024F0008073FEF71BF9002010BD0000D0F8C00269
:1025000001F07F0200EB421000F12A02090658BFD9
:1025100000F595721078704780B59446D0F8C002E7
:102520001A466346FEF792F9FFF7C2FE80BD00002F
:1025300080B5D0F8C002FEF7B7F9FFF7B9FE80BD4D
:10254000F0B581B00021002240230446002540263A
:10255000FFF7E2FF01272046802100224023C4F834
:102560005871C4F86461FFF7D7FFD4F8B802A761C7
:10257000666284F89C72C4F894526560C4F8A452F0
:1025800028B1D4F8B40200214268204690470020C8
:1025900001B0F0BD90F89C12042904BF90F89D1280
:1025A00080F89C120020704780B590F89C12032997
:1025B00005D1D0F8B412C969002918BF8847002096
:1025C00080BD0000024600201174704780B5D0F82D
:1025D000C002FEF713FBFFF76BFE80BDB0B500F540
:1025E0002A750446284600F04BF894F8A802012109
:1025F000B4F8AE22C4F8941200F01F010229C4F806
:10260000982208D001290CD089B92046294600F02B
:10261000D3F80020B0BD2046294600F007F900207D
:10262000B0BD2046294600F0A5F90020B0BD00F05D
:102630008001204600F002F80020B0BD80B5D0F83F
:10264000C002FEF749F9FFF733FE80BD80B5D0F830
:10265000C002FEF7F1FAFFF72BFE80BD014690F8AD
:102660009C02042281F89D02002081F89C22704780
:1026700080B5D0F8C002FEF761F9FFF719FE80BD02
:102680000A7802704A7842704A8842808A8882803A
:10269000C988C1807047000000290EBF0220C0F821
:1026A000B412002070470000B0B58A88044642B9D1
:1026B000C88830B948887F2803D894F89C12032929
:1026C00003D12046FFF766FCB0BD00F07F05204631
:1026D000294684F89E52FFF779FF2046FFF78CFCCD
:1026E000002D14BF0220012084F89C02B0BD000020
:1026F00080B5D0F8B42232B112689047002818BFD4
:102700000120400080BD022080BD0000B0B54A8895
:1027100040F2DB15D1B20446C2F2000502292A704C
:1027200003D32046FFF736FCB0BD94F89C02032883
:102730000CD002281AD141B3032084F89C02204611
:102740006160FFF7D5FF0228EBD01EE0B1B16068F1
:1027500088421AD0C1B22046FFF7F0FB2978204604
:102760006160FFF7C5FF02280FD1DAE72046FFF7C7
:1027700011FC29782046FFF7E1FBB0BD022084F868
:102780009C0220466160FFF7D9FB2046FFF734FC2E
:10279000B0BD000080B54988012918BF80BD012166
:1027A000C0F8A412FFF728FC80BD000080B5FFF739
:1027B0004DFF002080BD000080B50A7812F0600255
:1027C00009D0402A01D0202A13D1D0F8B42292682F
:1027D0009047002080BD4A78092A0AD8DFE802F035
:1027E000050D091109152109191DFFF725FD002007
:1027F00080BDFFF7CFFB002080BDFFF7A7FB0020C7
:1028000080BDFFF7C7FF002080BDFFF74DFF002010
:1028100080BDFFF76BFC002080BDFFF777FF002035
:1028200080BDFFF77BFC002080BD0000B0B50A46EC
:102830000978044611F060010BD0402901D020290D
:1028400019D1D4F8B4021146836820469847002075
:10285000B0BD5078117998B101282CD0032868D1E7
:1028600094F89C02032839D0022862D141F08000FC
:1028700080285ED029E02046FFF78CFB0020B0BD09
:1028800094F89C02032835D0022852D141F08000F0
:1028900080284ED101F07F0000EB800004EB800027
:1028A00000F11402090658BF00F5AA72002010605A
:1028B0002046114658E094F89C0203283ED0022896
:1028C00037D141F08000802833D02046FFF7B6FE94
:1028D00020468021FFF7B2FE0020B0BD5088A8BB83
:1028E00041F08000802831D0D08878BB2046FFF7A7
:1028F000A5FE2BE001F00F0202EB820211F0800036
:1029000004EB82020CBFD2F8582192698AB101F01F
:102910007F0202EB820204EB820202F1140500281E
:1029200041F0800008BF02F5AA75802813D100206D
:1029300017E02046FFF72EFB0020B0BD508800288E
:102940009CD1480602D02046FFF7D8FC2046FFF76E
:1029500053FB0020B0BD2046FFF7D0FD0028E6D095
:1029600001202860204629460222FFF737FB00207D
:10297000B0BD0000B0B50D460978044611F0600105
:1029800018BF40290DD194F89C020138022803D8C1
:10299000A88810F0FE0F0BD02046FFF7FBFA0020AE
:1029A000B0BD2029EFD02046FFF7F4FA0020B0BDDB
:1029B000D4F8B40229468268204690470028F5D111
:1029C000E8880028F2D12046FFF716FB0020B0BDB2
:1029D0007047000040F2DC30C2F200007047000097
:1029E0002DE9F0410C78024691F803E000EB8406F3
:1029F00030F8240047F27065BEF1030F20EA0505A8
:102A000007D80020DFE80EF002070D0A45F4007534
:102A100006E0012005E045F4806501E045F4C0656D
:102A2000002048F2800C45EA0C033380338840F6DE
:102A30000F752B40234343EA0C0333800B7B002BA1
:102A40004FD0338840F60F652B400CF580752B4333
:102A50003380B2F850300D8902F580674FEA0418D0
:102A600007EB041425F00105E552B2F850204C891B
:102A700008F108033B4424F001049C524978328851
:102A8000002902F4804150D039B1318840F60F72EC
:102A900011400CF58042114331803188490607D539
:102AA000318840F60F7211400CF140021143318021
:102AB000318840F60F7211400CF58042114331808D
:102AC000318840F63F7211400CF120024A40BEF1BD
:102AD000010F08BF41EA0C023280318843F60F72C1
:102AE0004AE04B78B2F85050002B4FEA041449D01A
:102AF000C98822442A4421F00101A2F80014318837
:102B0000490607D5318840F60F7211400CF140029A
:102B100011433180318840F63F72BEF1010F01EA66
:102B200002012AD00CF1200270E039B1318840F660
:102B30000F7211400CF580421143318031884906F3
:102B400007D5318840F60F7211400CF14002114355
:102B50003180318840F60F7211400CF14002114370
:102B60003180318843F60F7211400CF540525140CC
:102B70003180318840F63F72114041EA0C013180CA
:102B8000BDE8F081CF8844F0080E02F580639E44D2
:102B900027F001072EF80570B2F850200D6944F0B7
:102BA0000C0119443DB13E2D11D805F0010303EB92
:102BB00055039D0218E0535A48F2000723F4F843E6
:102BC0005352535ACFF6FF7743EA07050CE06B09DF
:102BD0004FF0FF37EC0608BF07EB551348F200072C
:102BE000CFF6FF7747EA832555523188490407D548
:102BF000318840F60F7211400CF58042114331804C
:102C0000318843F60F7211400CF54052514031802B
:102C1000BDE8F0810020704780B50B784A78097BC9
:102C200030F823E048F2C00C00EB830341B30EF40C
:102C3000804062B338B1188840F60F7108400CF537
:102C40007F51084318801888400606D5188840F63A
:102C50000F71084040EA0C001880188840F60F7188
:102C600008400CF57F5108431880188840F63F71E2
:102C70000840ACF140010843188043F60F7045E06E
:102C800052B35FEA4E602DD440F63F703EE038B15B
:102C9000188840F60F7108400CF57F5108431880E2
:102CA0001888400606D5188840F60F71084040EA9B
:102CB0000C001880188840F60F71084040EA0C009C
:102CC0001880188843F60F710840ACF140010843A2
:102CD000188040F63F7019E05FEA4E400CD443F68E
:102CE0000F7013E0188840F60F71084040EA0C009E
:102CF000188040F63F7009E0188840F60F710840D0
:102D00000CF57F510843188043F60F70198808406E
:102D1000ACF1400101430020198080BD00207047C4
:102D20000020704780B50121A0F840100021A0F8D4
:102D30004010A0F84410A0F8501000F0E3F9002073
:102D400080BD00000146B0F8400044F2FF0202409E
:102D50000020A1F8402070470020704780B50A7B12
:102D60000AB1002080BD0A784B7830F822C04FEAC3
:102D70004202C3B15FEA4C6348F2A00C0BD530F8B5
:102D800012E040F60F730EEA030E0CF1200343EA43
:102D90000E0320F81230C9780129E2D030F8121061
:102DA00040F63F7312E05FEA4C414BF2800C09D5CC
:102DB00030F8123040F60F7119400CF5805319436A
:102DC00020F8121030F8121043F60F73194081EA00
:102DD0000C0120F81210002080BD000002460B7884
:102DE000487832F823C040F63F71002848F290003E
:102DF00008BF43F60F71CFF6FF7008BF00F57F6084
:102E000001EA0C014140002022F823107047000025
:102E1000F0B581B08F690A69044648780D46097B90
:102E2000BB1A38BF002388BF17460128AB6120D1E9
:102E300048F2B006B9B3297834F8212052065AD4A2
:102E4000012800F09680002840F017810901043124
:102E5000B4F850002144002F01F5806100F0F180AA
:102E60003E2F00F2FE8007F0010202EB57029202B1
:102E700002E151B3012856D0002840F0A080B4F8F8
:102E800050202978224409010431002F02F5806284
:102E900000F081803E2F00F2868007F0010303EBF3
:102EA00057039B028AE06969EA88BBB2204600F0BA
:102EB00063F9B4F85000297820440901043108442A
:102EC000A0F8007440F63F7010E1B4F85010287874
:102ED000214400010C3001F5806177B34BF280068C
:102EE0003E2F37D807F0010202EB570292024252FE
:102EF00043F60F70FAE0012844D0002840F0CC805F
:102F000009010C31B4F850002144002F01F5806113
:102F100000F09F803E2F00F2B38007F0010202EB29
:102F200057029202B7E0B4F850102A7821441201F7
:102F300004321144A1F8007441E0425A4BF2800679
:102F400022F4F8424252425A42F40042425243F6BC
:102F50000F70CBE07A09FB064FF0FF3C08BF0CEB8B
:102F600057124FF4004343EA8222425243F60F7055
:102F7000BCE00901B4F85000043121440844A0F831
:102F800000747AE00901B4F850000C31214408447F
:102F9000A0F8007480E08B5A23F4F8438B528B5ACC
:102FA00043F400430AE07B09FE064FF0FF3C08BFF4
:102FB0000CEB57134FF4004646EA83238B5201284B
:102FC0004BF2800614D0F8B9B4F850102878214498
:102FD00000010C3001F58061CFB13E2F22D807F0FF
:102FE000010202EB57029202425243F60F707DE05B
:102FF000B4F850002978204409010C310844A0F8A5
:10300000007443F60F7071E043F60F706EE0425AA1
:1030100022F4F8424252425A42F40042425243F6EB
:103020000F7063E07A09FB064FF0FF3C08BF0CEB22
:1030300057124FF4004343EA8222425243F60F7084
:1030400054E0425A22F4F8424252425A42F40042B8
:1030500012E0425A22F4F8424252425A42F40042EA
:1030600019E07A09FB064FF0FF3C08BF0CEB571242
:103070004FF4004343EA8222425205F108000DE07A
:103080007A09FB064FF0FF3C08BF0CEB57124FF4D8
:10309000004343EA8222425205F10A00028869692C
:1030A000BBB2204600F068F8687801280ED0D8B985
:1030B000287840F60F7234F82010114006F1100203
:1030C000114324F8201040F63F700FE0287840F6B6
:1030D0000F7234F8201011404CF28002114324F892
:1030E000201040F63F7001E040F63F70297834F838
:1030F0002120104080EA0602002024F8212001B09F
:10310000F0BD00000146B0F8400040F43F4200200E
:10311000A1F840207047000080B541F2C000C2F223
:103120000000FDF71FFC80BDB0F8440070470000B0
:1031300000EB42000022B2EB530F00F580620BD08F
:1031400058080239043A00BF32F804CF013821F898
:1031500002CFF9D102310432D8071CBF10880870A1
:103160007047000000207047002904BF8021A0F8AC
:103170004C1000207047000003F1010C0023B3EB5A
:103180005C0F08BF704700EB42024FEA5C03881EE9
:1031900002F57F7130F8022F013B21F8042FF9D19D
:1031A00070470000FEE70000002848BF704700F0AD
:1031B0001F01012202FA01F14EF200124009CEF283
:1031C000000242F8201070474EF60C50CEF200007C
:1031D0000068C0F3022070474EF6145300F00F024F
:1031E000CEF2000309011A4400F16043B0F1FF3F41
:1031F000C8BF03F564421170704700004EF60C51D1
:10320000CEF200010A684FF6FF031A4060F30A226B
:1032100042F0806040F0FD700860704780B541F278
:103220002C30C2F20000FEF78FF880BD10B540F6DA
:103230000004C4F2010420460121FDF7D9F970B160
:1032400041F27030C2F2000001884A1C028061B96C
:1032500040F2DA10C2F200000121017005E041F2F3
:103260007030C2F200000021018020460221FDF7EB
:10327000BFF930B141F26C30C2F200000021018090
:103280000DE041F26C30C2F2000001884A1C02805D
:1032900029B940F2DA10C2F200000221017004F5EF
:1032A00000604FF40051FDF7A3F930B141F26E30E8
:1032B000C2F200000021018010BD41F26E30C2F266
:1032C000000001884A1C0029028018BF10BD40F28E
:1032D000DA10C2F200000321017010BDFDF7B0F951
:1032E000FEF7BAFBFEF734F9FEF7B8F9FEF78CF9F2
:1032F000FFF794FF41F2004508A4C4F2010500BFA6
:1033000020461E21FDF730F828460421FDF776F906
:103310004FF4FA70FDF764F8F2E700BF75736220AE
:103320007072696E74206461746120746573740ACC
:103330000000000000000000000000000102030483
:103340000607080968330008000000207801000023
:103350006C010008283400087801002000180000E3
:10336000C8010008000000001335201B086D041A76
:103370007D041AA9041AD9041A11041A4504111358
:1033800024F413351D1C08891C141A1E10311ACD83
:103390000C1A0D041A5904C11A15281A05041A2505
:1033A000041AF51C1409024313020125C032090452
:1033B0001B01020B1305241610010524011009013D
:1033C00004240202052406170107058203081510CC
:1033D00009040133020A2E0705010240072A81076A
:1033E00011093744113A02441907112B0A06061134
:1033F0002B4001502A07500A3B04941A121713025B
:10340000021E40830440574D1B0203591321031B26
:10341000081D041A19041A4D040718040309041A94
:0834200003120132100000004C
:0400000508000131BD
:00000001FF
