:020000040800F2
:10000000D01100200D0200087F1B00084B170008CC
:100010007D1B000877030008EF380008000000008F
:100020000000000000000000000000002F25000874
:100030007903000800000000431E00083125000875
:1000400027020008270200082702000827020008EC
:1000500027020008270200082702000827020008DC
:1000600027020008270200082702000827020008CC
:1000700027020008270200082702000827020008BC
:1000800027020008270200082702000827020008AC
:100090007938000827020008270200082702000814
:1000A000270200082702000827020008270200088C
:1000B000270200082702000827020008270200087C
:1000C000270200082702000827020008270200086C
:1000D000270200082702000827020008270200085C
:1000E000270200082702000827020008270200084C
:1000F000270200082702000827020008270200083C
:10010000270200082702000827020008270200082B
:100110002702000827020008F5250008270200082A
:10012000270200082702000827020008270200080B
:1001300000F002F800F05AF80AA090E8000C82449F
:100140008344AAF10107DA4501D100F04FF8AFF27C
:10015000090EBAE80F0013F0010F18BFFB1A43F0A5
:1001600001031847C43C0000E43C00000A444FF07F
:10017000000C10F8013B13F0070408BF10F8014B06
:100180001D1108BF10F8015B641E05D010F8016B4B
:10019000641E01F8016BF9D113F0080F1EBF10F8AF
:1001A000014BAD1C0C1B09D16D1E58BF01F801CBD2
:1001B000FAD505E014F8016B01F8016B6D1EF9D555
:1001C0009142D6D37047000000230024002500266A
:1001D000103A28BF78C1FBD8520728BF30C148BFAA
:1001E0000B6070471FB51FBD10B510BD00F08AF839
:1001F0001146FFF7F7FF03F0C9FB00F0A8F803B4BE
:10020000FFF7F2FF03BC00F0AFF800000948804799
:1002100009480047FEE7FEE7FEE7FEE7FEE7FEE7E8
:10022000FEE7FEE7FEE7FEE704480549054A064B00
:1002300070470000AD25000831010008D00B0020F8
:10024000D0110020D00D0020D00D002010B5203A94
:10025000C0F00B80B1E81850203AA0E81850B1E87F
:100260001850A0E81850BFF4F5AF5FEA027C24BF35
:10027000B1E81850A0E8185044BF18C918C0BDE82C
:1002800010405FEA827C24BF51F8043B40F8043BF5
:1002900008BF7047D20728BF31F8023B48BF11F8AA
:1002A000012B28BF20F8023B48BF00F8012B704704
:1002B0004FF0000200B5134694469646203922BFFF
:1002C000A0E80C50A0E80C50B1F12001BFF4F7AF4A
:1002D000090728BFA0E80C5048BF0CC05DF804EB2C
:1002E000890028BF40F8042B08BF704748BF20F89A
:1002F000022B11F0804F18BF00F8012B7047704798
:1003000070477047754600F02BF8AE460500694609
:10031000534620F00700854618B020B5FFF784FF4C
:10032000BDE820404FF000064FF000074FF00008F6
:100330004FF0000B21F00701AC46ACE8C009ACE877
:10034000C009ACE8C009ACE8C0098D46704710B5DB
:100350000446AFF300802046BDE81040FFF74FBFD2
:10036000004870476C0B002001491820ABBEFEE727
:10037000260002007047FEE7704772B6FEE70000F5
:1003800070B5044600F01CF90546601C02D0044814
:100390000078044400F014F9401BA042FAD370BD69
:1003A000700000202DE9F84FDFF8C891002409F112
:1003B000040A0AF1040B23460F270BF1040ED1E0C7
:1003C0000125A54006EA0502AA4276D1DFF8A8C1B8
:1003D0004E68A6EB0C0866452BD00DDC032E34D0FE
:1003E00005DC36B3012E19D0022E2FD11BE0112EC1
:1003F00016D0122E2AD119E0B8F5881F19D006DCC4
:10040000B8F5803F15D0B8F5801F1FD111E0B8F5C1
:10041000001F0ED0B8F5041F18D10AE0CB6815E014
:10042000CB681B1D12E0CB6808330FE0CB680C33A0
:100430000CE08B682BB1012B4FF0080303D0456112
:1004400004E0042302E0056100E00023FF2A01D854
:10045000064601E000F104064FEA840501D9A5F142
:100460002005D6F8008007FA05FC28EA0C0803FAF4
:1004700005F548EA0508C6F800804D68ED0070D51E
:100480003E4DAE6946F00106AE61AD6924F003064B
:1004900005F0010500953A4D06EB050CDCF8085017
:1004A000A607360F07FA06F825EA0805DFF8D48014
:1004B000404503D14FF0000825E052E0DFF8C88046
:1004C000404502D14FF001081DE0DFF8C0804045F3
:1004D00002D14FF0020816E0DFF8B480404502D1A7
:1004E0004FF003080FE0DFF8AC80404502D14FF039
:1004F000040808E0DFF8A080404502D14FF005086D
:1005000001E04FF0060808FA06F848EA0508CCF8BA
:1005100008804D68D9F80060ED034D4601D51643BB
:1005200000E096432E604D68DAF80060AD03554652
:1005300001D5164300E096432E604D68DBF800605D
:10054000ED025D4601D5164300E096432E604D68EE
:10055000DEF80060AD02754601D5164300E0964313
:100560002E60641C0A681646E2407FF429AFBDE89D
:10057000F88F00000004014000001110001002403C
:100580000000014000080140000C01400010014043
:100590000014014000180140001C01408068084020
:1005A00000D001207047C2680A4201D04161704703
:1005B000016170470AB1016170470904FBE700005F
:1005C0000148806870470000700000200248816880
:1005D000027811448160704770000020074810B510
:1005E000016841F010010160032000F075F80F2050
:1005F00000F006F800F024F8002010BD00200240B2
:1006000070B50D4D04464FF47A712878B1FBF0F0C7
:100610000A490968B1FBF0F000F049FF48B9102C15
:1006200007D200222146501E00F036F800206C60F0
:1006300070BD012070BD0000700000207C00002013
:100640000C4808B5816941F001018161816901F0BF
:1006500001010091C16941F08051C161C06900F0A0
:10066000805000900448416821F0E06141F0007141
:10067000416008BD0010024000000140002809DB75
:1006800000F01F02012191404009800000F1E020AC
:10069000C0F8001170470000F0B40E4B1B680C4608
:1006A000C3F30223C3F10705042D00D90425191D46
:1006B000072901D2002300E0DB1E012606FA05F11E
:1006C000491E214099409E40761E16403143F0BCA1
:1006D00003F00EB90CED00E0064900F007020868CF
:1006E0004FF6FF03184040EA0220034A1043086017
:1006F000704700000CED00E00000FA0510B50C0694
:1007000005D501F0070100EB4110283003E000EBB4
:10071000411000F5947099B232B101220273018147
:10072000190C4181002010BD00220273C180F9E73D
:10073000704700EB4112D0F86802D26B02F029B981
:1007400000EB4112D0F86802D2F83C2102F084B9E3
:1007500070B504460B0601F0070004EB40114FF0A2
:1007600001024FF0000503D581F82920283103E06C
:1007700081F8295101F59471087094F82802012834
:1007800008D084F82822206802F0A5FE84F82852B8
:10079000002070BD022070BD70B5044601F00F004E
:1007A0006268904201D9012070BD0B0601F007007C
:1007B00004EB40114FF001024FF0000503D581F822
:1007C0002920283103E081F8295101F594718D70B9
:1007D000087094F82802012808D084F8282220689C
:1007E00002F01CFF84F82852002070BD022070BD6A
:1007F00010B5044690F8280201280AD0012084F898
:100800002802080607D501F00701206803F032F836
:1008100004E0022010BD206803F02AF8002084F8CC
:10082000280210BD01F0070100EB4110D0F844018F
:1008300070472DE9F04104460F0601F0070004EB74
:1008400040114FF001064FF0000503D581F82960F3
:10085000283103E081F8295101F5947108700A618B
:10086000CB704A7802B1C881022B00D10D7194F887
:100870002802012809D084F82862206802F0F6FCDA
:10088000284684F82852BDE8F0810220FBE770B5C5
:100890000C4601F0070500EB4511C1E94F2300228A
:1008A000C1F8442181F8292181F8285101F594717A
:1008B0006207006802F007FF002070BD70B50446B3
:1008C0000D4601F007006168884201D9012070BD22
:1008D00029064FF000064FF0010205D504EB401148
:1008E00081F82920283105E004EB451181F82961C0
:1008F00001F594718A70087094F82802012807D0D5
:1009000084F82822206802F0C5FE680702D006E0BD
:10091000022070BD04F50C71206802F07DFE84F8A1
:100920002862002070BD70B50C4601F0070500EB91
:100930004511C1E90F2300224A64012281F82920D0
:1009400001F8285F6207006802F0BDFE002070BD5C
:1009500010B50446006802F095FF000402D5204659
:1009600001F00EF9206802F08DFF40050CD52068DB
:1009700030F8441F21F480610180204600F0FCF82B
:100980000021204600F013F9206802F07BFF4004AC
:1009900005D5206830F8441F21F48041018020688B
:1009A00002F070FF800405D5206830F8441F21F460
:1009B00000510180206802F065FFC00414D5206852
:1009C00030F8401F21F004010180206830F8401FFA
:1009D00021F008010180204600F0E1F8206830F89D
:1009E000441F21F480510180206802F04BFF000574
:1009F0001FD5206830F8401F41F0080101802068B1
:100A000030F8441F21F400610180206830F8401F55
:100A100041F004010180206802F034FFC00405D5D4
:100A2000206830F8441F21F480510180204600F0F6
:100A3000F3F8206802F026FF800508D5206830F81A
:100A4000441F21F400710180204600F0ACF82068BA
:100A500002F018FFC00505D5206830F8441F21F4C6
:100A60008071018010BD00002DE9F04186B00400C6
:100A700004D094F82902002520B108E0012006B036
:100A8000BDE8F08184F82852204600F057F8032092
:100A900084F82902206802F0B8FD04F11001142244
:100AA00088466846FFF7D2FB94E80F0002F011FD7C
:100AB0000227B0BB0021206802F0FEFE00200126C4
:100AC0000DE000BF04EB401181F8296001F8280F08
:100AD000C881CD700D614D61401CC0B28D616168EF
:100AE0008142EFD800200FE004EB401181F829513A
:100AF00081F8280181F82B51C1F83851C1F83C51D7
:100B0000401CC0B2C1F8405161688142ECD8142247
:100B100041466846FFF79AFB94E80F0002F066FD35
:100B200010B184F82972A9E784F8245084F8296266
:100B3000206802F059FD0020A1E7000008B5006818
:100B40000B49884212D10B48C16941F40001C161CF
:100B5000C069002200F40000009011461420FFF745
:100B60009BFDBDE808401420FFF788BD08BD0000CC
:100B7000005C00400010024070B50446806801250A
:100B8000022801D0FFF7F9FB2946D4F8680202F0E9
:100B90004AF8D4F86802BDE8704002F006B8D0F810
:100BA000680202F02AB8D0F8680202F030B810B536
:100BB000044690F8280201280BD0012084F828026E
:100BC00084F82410206802F079FE002084F82802BE
:100BD00010BD022010BDD0F8682200F50C7110463F
:100BE00002F02DB810B5044690F82802012810D064
:100BF000012084F8280201462046FFF799FD20686D
:100C000002F0F0FC206802F02CFE002084F828029C
:100C100010BD022010BD000010B50446D0F86802D7
:100C200002F04CF8A069002804D00348016841F0A4
:100C30000601016010BD000010ED00E02DE9F84351
:100C400005460078354CC00754D0E0690026C00046
:100C500008D4E06940F08050E061E069012600F0CE
:100C6000805000902E480168C90512D40168804662
:100C700041F480710160FFF7A3FC074605E000BF67
:100C8000FFF79EFCC01B642823D8D8F80000C005DD
:100C9000F6D5206A10F4407021D0A98801F4407183
:100CA00081421CD0206A1F49012220F440700A6052
:100CB00000220A602062C00711D0FFF781FC0746BE
:100CC00041F2883808E000BFFFF77AFCC11B4145BC
:100CD00002D90320BDE8F883206A8007F4D5206A92
:100CE000696820F44070084320621EB1E06920F07A
:100CF0008050E0612878800705D56068A96820F4F5
:100D00004040084360602878C00605D5606869697E
:100D100020F48000084360600020DBE70010024000
:100D200000700040400442422DE9F0470F460500A4
:100D300061D0434E306800F00700B84209D23068F5
:100D400020F0070038433060306800F00700B842F8
:100D500051D128683B4C810712D5400703D5606804
:100D600040F4E06060602878000703D5606840F4D4
:100D7000605060606068A96820F0F000084360601F
:100D80002878C00728D06868012810D02168022878
:100D900010D0890700292EDA616821F00301014390
:100DA0006160FFF70DFC804641F288390DE0216853
:100DB0008903EFE78901EDE7FFF702FCA0EB0801EB
:100DC000494502D90320BDE8F0876068696800F0F2
:100DD0000C00B0EB810FEFD1306800F00700B84293
:100DE0000BD9306820F0070038433060306800F0DD
:100DF0000700B84201D00120E5E72878400705D573
:100E00006068E96820F4E0600843606028780007C3
:100E100006D56068296920F4605040EAC10060602E
:100E200000F018F86168084AC1F30311515CC8402A
:100E30000649086006480068FFF7E2FB0020C2E7A9
:100E40000020024000100240003E00087C0000200C
:100E50007400002012A185B00FC98DE80F0014A006
:100E6000144A006804905168134801F00C03042BE5
:100E700010D0082B0ED1C1F38343C9031DF8030022
:100E80000AD5516804AAC1F34041515C0A4A504353
:100E9000B0FBF1F005B0704708494843FAE700009D
:100EA00002030405060708090A0B0C0D0E0F1010AB
:100EB000010200000010024000127A0000093D000B
:100EC0002DE9F84F040070D02078C04DC00749D0FC
:100ED0006868C0F38100012807D06868C0F381000A
:100EE000022809D16868C00306D52868800339D56F
:100EF00060680028E7D035E06068B0F5803F0BD02F
:100F000010B1B0F5A02F11D0286820F480302860EF
:100F1000286820F4802002E0286840F480302860AF
:100F2000606890B1FFF74CFB06460AE0286840F481
:100F300080202860F0E700BFFFF742FB801B642899
:100F400073D828688003F7D50CE0FFF739FB064615
:100F500005E000BFFFF734FB801B6428F0D8286849
:100F60008003F7D420789A4E80074FF001094FF0A4
:100F7000000839D5686810F00C0F07D06868C0F316
:100F80008100022809D16868C00306D42868800758
:100F900014D52069012808D110E02069B0B1C6F845
:100FA0000090FFF70DFB074605E00AE1FFF708FB9D
:100FB000C01B0228C4D828688007F7D52868616953
:100FC00020F0F80040EAC10028600DE0C6F800807B
:100FD000FFF7F6FA074604E0FFF7F2FAC01B022813
:100FE00023D828688007F7D4207800072CD57948C3
:100FF000A169D9B1C0F80090FFF7E2FA074604E012
:10100000FFF7DEFAC01B02280FD8686A8007F7D501
:1010100071484FF4FA510068B0FBF1F0009000BF46
:101020000098411E0091FAD20EE080E0C0F80080E6
:10103000FFF7C6FA074604E0FFF7C2FAC01B022812
:1010400075D8686A8007F7D42078400760D5E869CA
:101050000027C00008D4E86940F08050E861E869E2
:10106000012700F0805000905C480168C90513D446
:101070000168834641F480710160FFF7A1FA82465E
:1010800006E000BFFFF79CFAA0EB0A0064284ED8E8
:10109000DBF80000C005F5D5E06801280AD008B1EA
:1010A000052813D0286A20F001002862286A20F061
:1010B000040002E0286A40F001002862E06841F282
:1010C000883B98B1FFF77CFA82460BE0286A40F033
:1010D00004002862EEE700BFFFF772FAA0EB0A01F6
:1010E00059455AD8286A8007F6D50CE0FFF768FA08
:1010F000824605E0FFF764FAA0EB0A0159454CD897
:10110000286A8007F6D41FB1E86920F08050E861B2
:10111000E06988B36968C1F38101022944D00228DB
:10112000C6F8608004D0FFF74BFA044638E034E09C
:10113000FFF746FA074604E0FFF742FAC01B022811
:101140002BD828688001F7D4206AB0F5803F05D1FC
:101150006868A16820F4003008436860D4E9080199
:101160000843696821F4741108436860C6F8609008
:10117000FFF726FA044606E025E000BFFFF720FA55
:10118000001B022809D828688001F7D51BE000BFA2
:10119000FFF716FA001B022802D90320BDE8F88FDA
:1011A00028688001F4D40EE00128F7D06868226A2C
:1011B00000F48031914204D1616A00F470108842D9
:1011C00001D00120EAE70020E8E70000001002401B
:1011D00000004242800442427C0000200070004037
:1011E00070B5040005D00025A56294F8510010B137
:1011F00006E0012070BD84F85050204600F02EF823
:10120000022084F851002068016821F0400101604B
:10121000D4E901010843D4E9031211430843616989
:101220000843218B01F400710843E1690843216AF6
:101230000843A16A084321680860A069042101EA03
:101240001040216848602068C16921F40061C161D3
:101250006565012084F85100002070BD30B585B06F
:101260000024009401940294039400681449884275
:1012700023D11448816941F480518161816901F46D
:1012800080510491816941F00401816180690E4DB2
:1012900000F004000490A0200090022001900320A0
:1012A000039069462846FFF77DF84020CDE9000409
:1012B000694628460294FFF775F805B030BD000076
:1012C0000030014000100240000801402DE9F84FB5
:1012D000044690F8500000270A9E1D4692468B4611
:1012E0004FF0010901280ED0012084F85000FFF7CB
:1012F00067F9804694F85100616801280CD0B1F577
:10130000827F07D102E00220BDE8F88FA16809B909
:10131000042801D00227C2E0BBF1000F27D0BAF1A8
:10132000000F24D01DB394F85100042802D00520EA
:1013300084F8510000206065C4F838A0E587A587CF
:10134000C4F830B0E586A586206460642068016832
:10135000490603D4016841F040010160E068B0F53E
:10136000006F606805D0E8B3012D46D07FE001270B
:1013700095E008B1012D39D1206B21680088C86043
:10138000206B801C2063E08E401EE0862EE02068EB
:10139000816889070FD5E18E69B1B9F1010F0AD1D2
:1013A000216B0988C160206B801C2063E08E401E89
:1013B000E0864FF0000920688168C9070CD0E18FF2
:1013C00051B1C068A16B0880A06B801CA063E08F46
:1013D000401EE0874FF00109FFF7F2F8A0EB08008C
:1013E000B04200E009E001D3701C50D1E08E00282B
:1013F000CDD1E08F0028CAD13FE0206B2168007872
:101400000873206B401C2063E08E401EE0862EE0B7
:101410002068816889070FD5E18E69B1B9F1010FA4
:101420000AD1216B09780173206B401C2063E08E88
:10143000401EE0864FF0000920688168C9070CD083
:10144000E18F51B1C068A16B0870A06B401CA06314
:10145000E08F401EE0874FF00109FFF7B1F8A0EBE5
:101460000800B04202D3701C01D010E07EB1E08EC3
:101470000028CDD1E08F0028CAD14246314620460F
:1014800000F0A0FF28B101272020606507E00327B6
:1014900005E0A06818B92068C16880680090012044
:1014A00084F85100002084F8500038462CE710B52D
:1014B000401EB0F1807F01D3012010BD4FF0E02429
:1014C00060610F21601702F013FA0020A06107206D
:1014D0002061002010BD7047704770B590F83C2027
:1014E000012A19D0012400F83C4F0222427050F822
:1014F0003C3C5A689D6822F070060A68496832438D
:1015000025F0800529435A6050F83C2C91604470C6
:1015100000210170084670BD022070BD10B50400A6
:1015200003D094F83D0010B107E0012010BD002069
:1015300084F83C00204600F00DF8022084F83D00BD
:10154000211D206801F05CF8012084F83D00002096
:1015500010BD000008B500680B49884212D10B4845
:10156000C16941F01001C161C069002200F01000A2
:10157000009001213620FFF78FF8BDE808403620A3
:10158000FFF77CB808BD00000010004000100240CA
:101590000168CA6842F00102CA600068816801F00F
:1015A0000701062903D0016841F001010160002014
:1015B0007047704770B50446006801694FF0000538
:1015C000C943890715D4C168C943890711D4E91EE5
:1015D000016101202077206880698007204602D0C1
:1015E000FFF7E7FF04E000F098F8204600F096F8D7
:1015F000257720680169C943490717D4C168C943E1
:10160000490713D46FF0040101610220207720689C
:10161000806910F4407F204602D0FFF7CAFF04E043
:1016200000F07BF8204600F079F825772068016902
:10163000C943090716D4C168C943090712D46FF01A
:1016400008010161042020772068C06980072046D6
:1016500002D0FFF7AEFF04E000F05FF8204600F094
:101660005DF8257720680169C943C90617D4C168A8
:10167000C943C90613D46FF0100101610820207717
:101680002068C06910F4407F204602D0FFF791FF28
:1016900004E000F042F8204600F040F8257720688A
:1016A0000169C943C90708D1C168C943C90704D141
:1016B000891E0161204600F033F820680169C943A2
:1016C000090609D4C168C943090605D46FF0800131
:1016D00001612046FFF7FFFE20680169C943490602
:1016E00009D4C168C943490605D46FF040010161BE
:1016F000204600F029F820680169C94389060BD407
:10170000C168C943890607D46FF0200101612046F2
:10171000BDE87040FFF7E0BE70BD70477047000045
:10172000074988420AD107480189491C89B20181C9
:10173000142903D10021018102F0F0B870470000A4
:101740008C010020260100207047FEE7F0B5002341
:101750000A24302537261F4611E000BFB4EB107F66
:1017600002D905EB107C01E006EB107C01F813C0F8
:1017700001EB430C00015B1C8CF80170DBB293425F
:10178000ECD3F0BD70B5D0F8B842054694F8180215
:1017900040B9D4F8140228B1607A18B9012128465A
:1017A00001F07AFA8121284601F076FA607A02285F
:1017B00008D104F503722846BDE870401F230121BB
:1017C00001F0EAB970BD000070B5D0F8B842054626
:1017D0000121D4F81002C4F83002D4F81402C4F87D
:1017E0003402284601F082F91F280DD12849D4F887
:1017F0000C02884208D194F81912012904D894F8EF
:101800001A0208B1102809D994F8191220230522C8
:10181000284600F05EFD0220607209E004F21B22FF
:10182000284600F021FB0028207A08DA052804D099
:101830002846BDE87040FFF7A5BF012122E002283D
:1018400025D0012823D0032821D06689CEB1D5F830
:10185000B812284604F10C02D1F81432B34200D376
:101860003346D1F834429BB2A41BC1F83442002461
:1018700081F8384204240C72BDE87040812101F0E7
:1018800026BA00212846BDE8704000F083B870BD3C
:101890005553424310B5D0F8B842627A022A08D0B4
:1018A00009060BD5012A09D0BDE81040012100F03E
:1018B00071B8812101F0F0F90020607210BD10B5FF
:1018C000D0F8B8220446107A022805D0032801D0A7
:1018D000042810D1002109E092F81912204602F2E2
:1018E0001B2200F0C1FA002805DA01212046BDE8DC
:1018F000104000F04FB810BD10B5D0F8B822044623
:10190000107A80B1012813D192F81912204602F200
:101910001B2200F0A9FA00280ADA2046BDE8104090
:10192000012100F037B82046BDE81040FFF74CBF5A
:1019300010BDD0F8B80200210172704770B5D0F820
:10194000B842002105462172617284F85D1284F864
:101950005C12D0F8BC0201680020884701212846AB
:1019600001F0BBF88121284601F0B7F804F50372B5
:101970002846BDE870401F23012101F00DB9D0F8C1
:10198000B82200211172012151721F2302F5037246
:1019900001F002B970B5D0F8B84205460B48C4F85A
:1019A0002C0284F83812002020720D2304F50B72EB
:1019B0008121284601F08BF904F503722846BDE821
:1019C00070401F23012101F0E7B800005553425336
:1019D0002DE9F04186B000252B4800950195029530
:1019E0000395816941F010018161816901F0100165
:1019F0000491816941F020018161816901F0200138
:101A00000491816941F00401816180691F4F00F0F8
:101A100004000490012210213846FEF7CBFDDFF8C8
:101A20007080012204214046FEF7C4FD7814CDE900
:101A300000050124694602941648FEF7B3FC02260D
:101A40008DE8700069463846FEF7ACFC0096CDE99B
:101A5000015469463846FEF7A5FC1020CDE9000484
:101A6000032569463846CDE90245FEF79BFC042074
:101A7000CDE9000469464046CDE90245FEF792FCF7
:101A800006B0BDE8F08100000010024000080140EF
:101A90000014014000100140104810B50E490160CB
:101AA0004FF48271416000218160C1604FF4007287
:101AB0000161C0E905121022C0E90721416281627B
:101AC0000A21C162FFF78CFB002803D0BDE810405B
:101AD000FEF753BC10BD000000300140340100206F
:101AE0001CB500240F4800940D4901940160472162
:101AF000C0E9011440F2E731C16080218161FFF744
:101B00000DFD08B1FEF739FC0094694605480194C3
:101B1000FFF7E3FC002801D0FEF72FFC1CBD0000FE
:101B2000001000408C01002010B500220F49104821
:101B300000F008FF08B1FEF720FC0E490C4801F048
:101B4000DDF908B1FEF719FC0B49094801F032F93B
:101B500008B1FEF712FC064801F026FA002803D06F
:101B6000BDE81040FEF709BC10BD000000000020D9
:101B7000CC0100208400002050000020FEE7FEE79A
:101B80002DE9F05F044648F60F7B4FF0020A4FF450
:101B900080684AE1B0F8441011F00F0629D030F8FF
:101BA0002670390479D530F8261040F68F7211402E
:101BB00041F0800120F8261004EB461595F8340119
:101BC00005F594750028206868D0297830F8212020
:101BD00052047DD5B0F850200AEBC1010A4408EB4D
:101BE0004201415AC1F309015FEA010971D02A8912
:101BF000D2E0C9062DD4018801EA0B0141F400416D
:101C00000180206804F12805B0F850202B780AEBF9
:101C1000C3010A4408EB4201405AC0F30900606462
:101C2000E16B0844E06300212046FEF782FD94F852
:101C300024000028ADD0A8690028AAD194F8240077
:101C4000216840F08000A1F84C00002084F82400B6
:101C5000EBE0018804F594750A0520D5B0F8502012
:101C60002B78062101EBC3010A4408EB4201405ADC
:101C700004F50C71C0F30903EB61EA88206801F0F8
:101C800005FE2068018840F68F72114041F0800106
:101C900001802046FEF79FFFC7E0A2E058E009045C
:101CA00055D5018840F68F72114041F080010180C6
:101CB0002168B1F850202B78062000EBC3000244C5
:101CC00008EB4200085A83059B0DEB6110D001E040
:101CD00053E065E0696959B1EA88206801F0D6FDF2
:101CE000E96968690844686100212046FEF728FD1B
:101CF0002068B0F850100844296900F20C4051B136
:101D00003E2910D84A08C90700D0521C4FF6FF716F
:101D100001EA82210FE0018821F4F8410180018865
:101D200041F4004107E04A09C90600D1521E4FF4B0
:101D3000004141EA82210180206801884BF68F72C0
:101D4000114081F4405148F28002114301806CE05F
:101D5000B0F850202B78062101EBC3010A4408EBB0
:101D60004201415AC1F309015FEA010924D0EA881E
:101D70004B46696901F08AFD1EE0B0F8503006223A
:101D800002EBC1015A1808EB4201415AC1F30901A3
:101D90005FEA010904D06A894B46696901F076FD62
:101DA0002878226832F8201048F68F73194048F2DC
:101DB000C003194322F82010E8694844E8616869C3
:101DC00000EB09026A61AB6913B12869484504D97F
:101DD00029782046FEF7B4FC03E029782046FEF778
:101DE00056FD380621D5216804EB461031F826202F
:101DF00002EA0B0242F4004221F826202168B1F8E1
:101E0000505010F8282F0AEBC2022A4408EB420275
:101E1000895AC1F30901C16142690A4442610178EA
:101E20008369204653B1FEF77EFD2068B0F8441068
:101E300009043FF5AFAE0020BDE8F09FFEF779FC46
:101E4000F3E7704710B5D0F8B8421A44D4F86032BE
:101E50009A4206D92123052200F03BFA4FF0FF30C9
:101E600010BD002010BD00002DE9F04113780024C2
:101E7000232B7DD00DDC1A2B7BD005DCEBB1032BA3
:101E800039D0122B11D163E01B2B01D01E2B0CD1AA
:101E90008DE02A2B6ED004DC252B6CD0282B04D1AE
:101EA000ABE02F2B68D05A2B67D02023052200F0FF
:101EB00010FA4FF0FF30BDE8F081D0F8B872054657
:101EC0000E46D7F8140228B1202397F819120522DC
:101ED00028469FE0D5F8BC0281683046884740B16B
:101EE0003A2302223146284600F0F3F905203872E1
:101EF0009AE07C8198E0D0F8B80200214318491C90
:101F0000C9B21C731229F9D3702101730C21C17459
:101F100090F85C1290F85D32994212D000EBC10348
:101F2000491C93F83C52857393F84152057693F817
:101F30004032C9B2437680F85C12042901D180F89E
:101F40005C4212214181117912296DD841816BE0E7
:101F50005478D0F8B832E40712D0072033495881BA
:101F6000401E0004000C03EB00040A5C227305E031
:101F70003DE020E044E03DE045E02AE0F0D153E0E0
:101F8000D0F8BC0201EBC1011279C06900EB8101FC
:101F90000879401D824200D81046588104E0401E56
:101FA00080B21C180A5C22730028F8D13CE0D0F8FB
:101FB000B802448138E0D0F8B81208201C4A4881A1
:101FC000401E0004000C01EB0004135C2373F7D1E6
:101FD0002AE0D0F8B8020821164A4181491E0904B6
:101FE000090C00EB0104535C2373F7D11CE000F0F3
:101FF00039F919E000F00BF916E000F0BAF813E037
:1020000000F081F910E05278D0F8B852920704D568
:102010002423052200F05DF906E0D5E99923FFF7B6
:1020200011FF002800DB6C81002044E7103E00080F
:10203000173E00081F3E00082DE9F041D0F8B842D5
:1020400006460F46B4F85E02D4F868524FF40071A9
:1020500045438D4200D30D46B5FBF0F083B2D6F870
:10206000BC0204F10C01D4F86422D0F810C08846F8
:102070003846E047002809DA112304223946304661
:1020800000F027F94FF0FF30BDE8F081ABB24246D7
:102090008121304600F01BFEB4F85E02D4F86422C1
:1020A000B5FBF0F1B5FBF0F01144C4F86412D4F8BC
:1020B0006812081AC4F86802D4F83412A1EB0501BA
:1020C000C4F8341201D1032020720020DCE72DE98E
:1020D000F047D0F8B84207464FF40075B4F85E02F6
:1020E000D4F8686288464643AE4200D32E46B6FB1B
:1020F000F0F083B2D7F8BC0204F10C01D4F86422EA
:10210000D0F814C089464046E047002809DA032386
:1021100004224146384600F0DCF84FF0FF30BDE8BD
:10212000F087B4F85E12D4F86422B6FBF1F01044E4
:10213000C4F86402B6FBF1F0D4F86822101AC4F8AF
:102140006802D4F83422A2EB0602C4F834220BD081
:102150004843A84200D3284683B24A460121384664
:1021600000F01AFD0020DAE700213846FFF712FCE4
:10217000F8E72DE9F041D0F8B84206461546207A36
:102180008846D0BB94F818024FF0FF3700062FD5D1
:10219000D6F8BC0281684046884730B13A23022213
:1021A0004146304600F095F814E06888297940BA35
:1021B000000440EA0122687941460243C4F86422DF
:1021C000B5F8070043BA3046C4F86832FFF73AFE64
:1021D000002802DA3846BDE8F08102202072B4F807
:1021E0005E12D4F868024843D4F81412884205D02D
:1021F000202394F819120522D3E7FFE74FF400706B
:10220000608141463046BDE8F041FFF715BF70B52B
:1022100005460E46D5E9AE4004F25E224368911CA5
:102220003046984740B13A2302223146284600F012
:1022300050F84FF0FF3070BDD4F86002401E010E20
:102240002173010C6173010AA173E07300202074F3
:102250006074B4F85E02010AA174E0740820608121
:10226000002070BD2DE9FC410546D0F8B8420020A1
:102270000F4606462118401C80B20E730C28F9D375
:10228000D5F8BC026A4601A943683846984748B168
:102290003A2302223946284600F01BF84FF0FF305F
:1022A000BDE8FC810820E0730198401E010E2174F6
:1022B000010C6174010AA174E07402202075667536
:1022C000BDF80000010AA175E0750C2060810020B6
:1022D000E6E7D0F8B80290F85D1200EBC10181F892
:1022E0003C2290F85D22002100EBC20282F84012ED
:1022F00090F85D22521CD2B280F85D22042A01D1EE
:1023000080F85D1270472DE9F041D0F8B8420646DA
:102310001546207A884620B13046BDE8F041FFF7E7
:10232000D6BE94F818024FF0FF37000636D4D6F820
:10233000BC0281684046884728B13A230AE030460B
:10234000FFF7C7FF1EE0D6F8BC02C16840468847C9
:1023500018B1272302224146F1E76888297940BA5B
:10236000000440EA0122687941460243C4F864222D
:10237000B5F8070043BA3046C4F86832FFF762FD8B
:10238000002802DA3846BDE8F081B4F85E12D4F8CD
:1023900068024843D4F81412814204D0202394F8F0
:1023A00019120522CBE74FF40071884200D308468A
:1023B000012183B2217204F10C02304600F0ECFBE3
:1023C0000020E0E738B50B46009204460022802149
:1023D00000F032F8002804D0606D40F02000606505
:1023E000032038BD01B582B04FF47A70009001230C
:1023F00001AA02A90248FEF769FF9DF804000EBD7C
:10240000340100200B4910B50A68136823F040031B
:1024100013600A6813684FF6C774234013600A6894
:102420001368034313600868016841F040010160CC
:1024300010BD0000340100202DE9F0411D46174673
:102440000E460446DDF8188008E0681C06D0FEF74A
:10245000B7F8A0EB0800A8420BD255B120688068FD
:1024600036EA000030D00020B842EED10020BDE8AE
:10247000F0812068416821F0E00141606068B0F5BA
:10248000827F0BD1A068B0F5004F02D0B0F5806F0D
:1024900004D12068016821F040010160A06AB0F514
:1024A000005F09D12068016821F4005101602068B3
:1024B000016841F400510160012084F851000020BE
:1024C00084F850000320D2E70120CDE770B5144610
:1024D0000D4601F096FA28604FF40070208000202D
:1024E00070BD10B501F08DFA002800D0002010BD9D
:1024F00010B501F0C1FA002010BD00207047002087
:10250000704710B5144608461A46214601F04EFBA6
:10251000002800D0022010BD10B5144608461A4607
:10252000214601F01DFC002800D0022010BD70479C
:10253000FEF74CB830B595B028216846FDF7B8FED7
:1025400014210AA8FDF7B4FE18210FA8FDF7B0FE6C
:1025500001210804CDE90010002402940225049111
:10256000CDE907504FF4E01009906846FEF7A8FC4B
:1025700008B172B6FEE70F20CDE90A054FF480607E
:10258000CDE90C4002210AA80E94FEF7CDFB08B15C
:1025900072B6FEE7102014940F900FA8FEF74EFBC2
:1025A000002801D072B6FEE715B030BD0D480168B5
:1025B00041F00101016041680B4A1140416001682E
:1025C0000A4A11400160016821F4802101604168DC
:1025D00021F4FE0141604FF41F0181600449C003F2
:1025E00008607047001002400000FFF8FFFFF6FE91
:1025F00008ED00E00148FEF7DDBF00008C0100207F
:10260000F0B502681C4B1D4D1D4E1E4F1E4C4FF069
:10261000804C984209D0A04207D0604505D0A8421E
:1026200003D0B04201D0B84204D122F0700E4A6803
:1026300042EA0E02984209D0A04207D0604505D078
:10264000A84203D0B04201D0B84203D122F4407571
:10265000CA682A434D6922F080022A4302608A68D0
:10266000C2620A688262984201D0A04201D109691F
:10267000016301214161F0BD002C014000040040D4
:1026800000080040000C00400034014010B5D0F8B4
:10269000B42252689047002010BD134610B50A4678
:1026A000002100F079FA002010BD134610B50A464B
:1026B000002100F00CFB002010BD10B50446802165
:1026C00000F0EAFA2046BDE81040002100F0E4BA2C
:1026D00010B505210023C0F894121A46194600F0DF
:1026E0005BFA002010BD10B50223C261C0F894321D
:1026F000026213460A46002100F0E9FA002010BDEC
:1027000010B504210023C0F894121A46194600F0AF
:10271000DEFA002010BD000010B50A46024903A0F1
:1027200000F0E0F8004810BD900400204D53432015
:10273000436F6E666967000012200880004870478A
:102740002000002010B50A46024903A000F0CAF894
:10275000004810BD900400204D534320496E74651D
:1027600072666163650000000420088000487047BD
:102770001C00002010B50A46024903A000F0B2F880
:10278000004810BD9004002053544D6963726F657A
:102790006C656374726F6E696373000010B50A46EE
:1027A000024903A000F09EF8004810BD90040020EC
:1027B00053544D3332204D6173732053746F7261E3
:1027C0006765000010B51A2008800A480168001DDE
:1027D0000468001D0068081809D008220649FEF7A1
:1027E000B5FF0549042210312046FEF7AFFF02482D
:1027F000801E10BDE8F7FF1F36000020F8B5044624
:102800000020ADF8000048880D46010A082948D28A
:10281000DFE801F04704091747473C45D4F8B012F8
:10282000207C0A6819E0207C02260028D4F8B40233
:1028300005D0C16A68468847014646703EE0816A15
:10284000F8E7C0B206282CD2DFE800F0030A101423
:10285000181CD4F8B002426805E0694690471CE0B5
:10286000D4F8B0028268E2B1207CF6E7D4F8B00276
:10287000C268F8E7D4F8B0020269F4E7D4F8B0020D
:102880004269F0E7D4F8B0028269ECE7207C40B9F5
:10289000D4F8B402416B6846884701460EE0207CBC
:1028A00020B129462046FFF708FFF8BDD4F8B4024E
:1028B000016B68468847014607204870BDF8000054
:1028C00048B1EA8852B1824200D90246ADF80020F0
:1028D0002046FFF708FFE8880028E6D12046FFF7EA
:1028E0000FFFF8BD70B5002300281ED00446002558
:1028F00002E06D1CEDB2641C2678002EF9D1022492
:1029000004EB450414801278CA545B1C0322CA5499
:1029100000245B1C06E0CA545B1CDAB28C54521CC7
:10292000D3B2401C0278002AF5D170BD01004FF0EF
:10293000000004D0012901D0022901D002207047F3
:102940000120704710B580B1D0F8B43213B1002324
:10295000C0F8B43209B1C0F8B012012180F89C125D
:10296000027000F0C7F8002010BD022010BD10B5A5
:10297000D0F8C002FDF710FFBDE81040FFF7D6BF4A
:1029800010B5D0F8C002FDF7E3FEBDE81040FFF738
:10299000CDBF2DE9F0411746044651B1D4F8B40239
:1029A00042691AB194F89C02032851D00220BDE874
:1029B000F081D4F89432002504F11400022B03D0E6
:1029C000042B3AD0C3B33CE0D0E903639E4207D95D
:1029D000F11AC1608AB239462046FFF766FE12E05E
:1029E0008068B0FBF3F103FB110199B9984211D350
:1029F000D4F8981288420DD2002211462046FFF7E3
:102A000054FEC4F8985200231A461946204600F096
:102A1000C3F816E0D4F8B402C16829B194F89C0256
:102A2000032801D1204688478021204600F034F950
:102A30002046FFF74DFE04E0FFE78021204600F02E
:102A40002BF994F8A002012804D184F8A05201E0E7
:102A5000204690470020AAE770B51546044649B1C4
:102A6000D4F8B40282691AB194F89C02032830D0D9
:102A7000022070BDD4F8941204F5AA70032902D084
:102A800005291ED027E0D0E903218A420BD9531A29
:102A9000C3600846834200D303469AB229462046C3
:102AA000FFF7FBFD17E0D4F8B402016929B194F8EF
:102AB0009C02032801D1204688472046FFF720FECC
:102AC00009E000200146C4F89402204600F0E4F832
:102AD00001E020469047002070BD10B5D0F8C0023C
:102AE000FDF786FEBDE81040FFF720BFD0F8C0021A
:102AF000FDF798BE10B519490446C1F86802C0F840
:102B0000C012174808600820486002208860002032
:102B10008861C86108620846FDF7A6FF08B1FDF7A5
:102B20002CFC0022D4F8C0021823114604F530749E
:102B3000FDF7E4FD5823002280212068FDF7DEFD2B
:102B40009823002281212068FDF7D8FDD823002298
:102B500001212068FDF7D2FD002010BD00090020F2
:102B6000005C00400A06D0F8C00201F07F0100EBD3
:102B7000411002D590F82A00704790F82A0170475A
:102B800010B51C461346D0F8C0022246FDF751FE90
:102B9000BDE81040FFF7CABE10B5D0F8C002FDF77F
:102BA00076FEBDE81040FFF7C1BE70B500220446B6
:102BB00040231146FFF7E4FF40260125C4F8646175
:102BC0003346002280212046C4F85851FFF7D8FF31
:102BD0006662A56184F89C520020C4F8940260608B
:102BE000C4F8A402D4F8B80228B1D4F8B402002181
:102BF000426820469047002070BD90F89C1204293E
:102C000003D190F89D1280F89C120020704710B5F7
:102C100090F89C12032904D1D0F8B412C96901B10B
:102C20008847002010BD01740020704710B5D0F80F
:102C3000C002FDF7BCFFBDE81040FFF777BE70B5DE
:102C4000044600F52A70054600F044F90120C4F856
:102C50009402B4F8AE02C4F8980294F8A80210F0F6
:102C60001F010AD001290DD0022910D000F08001E7
:102C7000204600F011F8002070BD2946204600F0E3
:102C800098F9F8E72946204600F0C4FAF3E7294608
:102C9000204600F017FAEEE710B5D0F8C002FDF7B5
:102CA0000DFEBDE81040FFF741BE10B5D0F8C002E0
:102CB000FDF798FFBDE81040FFF738BE90F89C1272
:102CC00080F89D12042180F89C120020704710B5F6
:102CD000D0F8C002FDF727FEBDE81040FFF726BE82
:102CE00010B5FEF7ECFD002010BD10B5FEF704FE98
:102CF000002010BD70B504460121FFF741FE0025FC
:102D000081212046C4F86C51FFF73AFE2046E56267
:102D1000FEF70FFED4F8B80218B100F0A2FAC4F81A
:102D2000B852002070BD00000A21018000487047A1
:102D30001C0100202021018000487047DC00002099
:102D40002021018000487047BC0000202021018024
:102D500000487047FC00002070B50446007C012547
:102D6000D0B14023022201212046FFF709FF402372
:102D7000C4F86C51022281212046FFF701FF4FF475
:102D80001B70E56200F06EFAC4F8B80280B120460C
:102D9000FEF7D4FD002070BD4FF4007633460222CA
:102DA00001212046FFF7ECFE3346C4F86C51E1E701
:102DB000022070BD09B1C0F8BC12002070472DE997
:102DC000F8430026D0F8B8720546ADF800600878E0
:102DD0000C46B04610F0600120D020293DD161782A
:102DE000FE2902D0FF2938D10EE0618881BBE1883D
:102DF000012932D1000630D5D5F8BC028069804760
:102E00000122394638601FE0618809BBE188F9B9C1
:102E1000000622D42846FEF7B2FD23E0607830B1E8
:102E2000012825D00A2809D00B2816D111E095F8E1
:102E30009C02032811D10222694605E095F89C0204
:102E400003280AD10122391D2846FFF74CFC09E06E
:102E500003E095F89C02032807D021462846FFF797
:102E60002CFC02263046BDE8F883A0787860F9E7AC
:102E700021792846FFF731FE21792846FFF780FDAA
:102E8000A0884FF00107010600F00F0000EB800062
:102E90004FF4007305EB80000BD5C0F81880287C38
:102EA00000B14023022281212846FFF769FEEF622C
:102EB0000BE0C0F85881287C00B140230222012198
:102EC0002846FFF75DFEC5F86C7121792846FEF7AC
:102ED000E1FCC7E70A7802704A7842708A78CB78BA
:102EE00002EB032242800A794B7902EB03228280B3
:102EF0008A79C97902EB0121C1807047024600201E
:102F000011B1C2F8B41270470220704710B5D0F862
:102F1000B42202241AB11268904700B90024204656
:102F200010BD000070B50E461E4D8978044629700C
:102F3000012931D894F89C0202280BD003280FD025
:102F400031462046FFF7B9FB29782046BDE870409E
:102F5000FFF79CBBD9B10320616084F89C0209E0B3
:102F600071B16068884212D0C1B22046FFF78EFB73
:102F7000297861602046FFF7C9FF02280CD006E0DF
:102F8000022084F89C0220466160FFF77FFB204608
:102F9000BDE87040FFF7B4BB31462046BDE8704045
:102FA000FFF78BBB8000002010B5FFF77EFE0020EE
:102FB00010BD2DE9F0410A78002612F0600208D019
:102FC000202A01D0402A70D1D0F8B42292689047CC
:102FD0006DE04B78002201250A2B66D2DFE803F072
:102FE000405D6557650805652C29FFF707FC5EE025
:102FF00004468888D8B9C888C8B94888802816D2B5
:1030000000F07F0794F89C02032810D084F89E7289
:1030100039462046FFF70AFE2046FFF771FB1FB135
:10302000022084F89C0242E084F89C523FE0204653
:103030003BE0FFF777FF3AE0CB88012B35D190F8E2
:103040009C32012B04D0022B02D0032B2DD104E0A3
:103050008260012200F1080116E00122011D13E047
:1030600090F89C22012A03D0022A01D0032A1CD105
:10307000CA88022A19D1C560D0F8A41209B1032167
:10308000C160022200F10C01FFF72DFB0FE049881F
:1030900001290CD1C0F8A45211E090F89C32012B08
:1030A00008D0022B06D0032B04D0FFF706FB3046D6
:1030B000BDE8F08149880129F9D1C0F8A422FFF7C1
:1030C0001FFBF4E72DE9F0410A460446107800277B
:1030D000097910F060030AD0202B01D0402B50D189
:1030E000D4F8B40211468368204698478FE0C0F3B5
:1030F0004110012806D05078D0B301282AD00328E7
:103100003FD107E0D4F8B402114683682046BDE8F9
:10311000F041184794F89C02022802D0032872D18B
:103120000AE071B380296ED02046FFF7B5FD8021FB
:103130002046FFF7B1FD6AE0508838B931B18029E7
:1031400004D0D08810B92046FFF7A6FD2046FFF72F
:10315000D7FA5CE094F89C020228E2D0032852D10E
:10316000508898BB4806F1D02046FFF700FCEDE7F9
:10317000FFE794F89C020026022803D0032842D1DE
:1031800012E040E009B180293DD1080601F07F003E
:1031900000EB800004EB800101D5143101E001F562
:1031A000AA7102220E602AE0080601F00F0000EB6F
:1031B000800004EB80000AD5806920B301F07F0015
:1031C00000EB800004EB800514350BE01FE0D0F825
:1031D0005801C0B101F07F0000EB800004EB8005D6
:1031E00005F5AA7541B1802906D02046FFF7BAFC43
:1031F00010B10120286000E02E60022229462046FE
:10320000FFF771FA03E011462046FFF756FA3846F9
:10321000BDE8F08170B5054608780C4610F06000F6
:1032200003D0202801D0402816D195F89C0201280F
:1032300003D0022801D003280ED1207901280BD811
:10324000D5F8B402826828469047E188014306D148
:103250002846FFF755FA02E02846FFF72EFA00202D
:1032600070BD704700487047900600202DE9F04778
:103270000C784FF0000C30F8243048F68F121340D1
:10328000CA78002A7DD0012A7CD0022A03D0032AE2
:1032900079D04FF0010C48F28002134320F824301B
:1032A0000D7830F8254048F68F731C402C431443AA
:1032B00020F825400F7B48F6BF744BF68F7948F213
:1032C000C0054CF28006EFB391F80080C24630F89A
:1032D000287048F280181F4047EA080720F82A7033
:1032E000B0F8507091F80080074407EB0817B1F868
:1032F000088028F00108A7F80084B0F8507091F811
:103300000080074407EB0817B1F80A8028F001088D
:10331000A7F808844F7891F80080002F30F82870C3
:103320004FEA47477ED0002F05DA30F828701F405B
:10333000374320F828700F7830F827805FEA486814
:1033400009D500E033E030F8278008EA030848EAAE
:10335000050820F827800F7830F827501D403543A6
:1033600020F82750CB780D78012B30F8253003EA70
:10337000040301D083F02003134320F825300B7899
:1033800002E00BE010E00CE030F8231001EA090144
:10339000114320F823106046BDE8F08743F4007322
:1033A00079E743F4C06376E743F4806373E74F78CB
:1033B00027B3B0F850600F78064406EB0716CF88A5
:1033C00027F00107A6F800740F7830F8276076061A
:1033D00005D530F827601E402E4320F82760CB78B3
:1033E000012B06D00B7830F82310214081F020010A
:1033F000CEE70B7830F823102140C9E7B0F85040F1
:103400000D78044404EB0514CD8825F00105A4F8DB
:103410000854B0F850400D78044404EB051404F24D
:103420000C4400E030E00D6955B13E2D10D86F0816
:10343000ED0700D07F1C4FF6FF7505EA87250FE0EA
:10344000258825F4F8452580258845F4004507E0C2
:103450006F09ED0600D17F1E4FF4004545EA872530
:1034600025800D7830F82540640405D530F82540D6
:103470001C40344320F825400B7830F8231001EA33
:10348000090181F4405183E7002F05DA30F82870F4
:103490001F40374320F828700E7830F826707F06DA
:1034A00005D530F826701F402F4320F826700F787E
:1034B00030F827601E402E4320F827600D7830F842
:1034C000253003EA090383F44053134320F82530E1
:1034D0008FE7002070472DE9F04391F80C804F787A
:1034E0000A7848F6BF7C4BF68F7948F2800348F2A1
:1034F000C0054CF2800648F68F74B8F1000F28D052
:10350000002F30F822704FEA474748D0002F05DAE5
:1035100030F822702740374320F822700A7830F8BC
:1035200022707F0605D530F8227027402F4320F8FF
:1035300022700D7830F825202240324320F82520D3
:103540000C7830F8242002EA0C021A4320F82420D8
:103550001AE07FB130F82260760605D530F8226097
:1035600026402E4320F822600A7830F8221001EA23
:103570000C010EE030F822506D0405D530F82250D1
:103580002540354320F822500A7830F8221001EA0D
:103590000901194320F822100020BDE8F083002F14
:1035A00005DA30F822702740374320F822700A7875
:1035B00030F82260760605D530F8226026402E438A
:1035C00020F822600E7830F8262022402A4320F886
:1035D00026200C7830F8242002EA09021A4320F849
:1035E0002420C1E7002070470020704700B501216A
:1035F000A0F840100021A0F84010A0F84410A0F856
:10360000501000F02EF9002000BD30F8401F21F4CA
:103610003F410180002070470020704730B50A7B91
:10362000B2BB4A7848F68F7548F28004C2B10B7875
:1036300030F82320520607D530F823202A4048F2DC
:10364000C0052A4320F82320CA78012A20D00A780E
:1036500030F8221048F6BF73194081F0200114E0C1
:103660000A7830F822305B0407D530F822302B403E
:103670004CF280052B4320F822300A7830F82210D3
:103680004BF68F73194081F44051214320F82210EA
:10369000002030BD10B54A780978002A48F280032E
:1036A00030F8212005D048F6BF74224082F0100285
:1036B00004E04BF68F74224082F480521A4320F8C3
:1036C0002120002010BDF0B50E46054691F801C03E
:1036D0000022097B3469B06948F28007BCF1010F10
:1036E00004D0A0424FD9001BB0614EE0A04202D9E5
:1036F000001BB06101E00446B26169B1307835F871
:1037000020104906B5F85010294401EB001012D5DD
:10371000A0F80C44728911E0A3B2F28828467169BE
:1037200000F0D2F8B5F850003178284400EB0110D1
:10373000A0F804441EE0A0F804443289A3B228464D
:10374000716900F0C1F8707848F68F7110B10128E6
:1037500007D00FE0327835F82200084048F2C00167
:1037600005E0327835F8220008404CF28001084329
:1037700025F82200317835F8210048F6BF72104054
:1037800080F0300068E00446B2614FF6FF724FF4FB
:10379000004381B3BCF1000F15D027E0018821F46C
:1037A000F8410180018841F400410AE03E2C3ED8F6
:1037B0006108E30700D0491C02EA812101E043EAE5
:1037C0008121018040E0B5F850003178284400EBB9
:1037D000011000F204407CB13E2C15D861085FEA6C
:1037E000C47C00D0491C02EA81210180707810B1AC
:1037F000012821D028E00FE0018821F4F841018060
:10380000018841F40041F0E761095FEAC46C00D12E
:10381000491E43EA8121E8E7B5F850003178284491
:1038200000EB011000F20C40002CBFD1B6E761099B
:10383000E206C4D1491EC2E7B5F8501048193178E4
:1038400000EB0110A0F80C44317835F821004BF65C
:103850008F72104080F44050384325F8210000203A
:10386000F0BD30F8401F41F43F4101800020704717
:1038700000207047002070470148FDF769B800003C
:1038800000090020B0F844007047000010B500EBBC
:1038900042005C0800F5806009D000BF30F8042BBE
:1038A00001F8012B120A01F8012B641EF6D1DA0788
:1038B00001D00088087010BD0020704711B9802128
:1038C000A0F84C100020704710B55B1C00EB4200C4
:1038D0005B0800F5806009D011F8012B11F8014B4D
:1038E00042EA042220F8042B5B1EF5D110BDFEE74E
:1038F0000907090E002804DB00F1E02080F800141D
:10390000704700F00F0000F1E02080F8141D7047B0
:103910000148FDF73DBE00008C01002070B5184E37
:1039200001213046FCF73AFE164C002538B160887C
:10393000401C80B26080012802D1207000E06580C8
:1039400002213046FCF72AFE40B1A5804FF4005119
:103950000D48FCF723FE50B1E58070BDA088401CE7
:1039600080B2A0800128F1D102202070EEE7E0882B
:10397000401C80B2E0800128EFD10320207070BD90
:10398000000801402601002000100140FCF726FE3F
:10399000FEF7D0FDFEF71CF8FEF77EF8FEF7C4F840
:1039A000FEF79EF8FFF7B4FF054C4FF4FA750421BB
:1039B0002046FCF7F8FD2846FCF7E2FCF7E700009C
:1039C0000014014010B5012210210448FCF7F2FD5B
:1039D000BDE81040FF20FEF705BD000000080140D3
:1039E00070B505460021092000F05EF9040004D1FD
:1039F0001021284600F00CF90446FFF7E3FF2046AB
:103A000070BD1FB56846FFF7EBFF10B1002004B092
:103A100010BD9DF800100120B0EB911F0DD19DF855
:103A200009109DF8082001EB02219DF8072000EB0A
:103A30000240084400048009E9E79DF805009DF86C
:103A40000A1000F00F0000EBD1109DF809109DF84E
:103A5000072001F0030100EB41019DF808008009F7
:103A600000EB82009DF8062002F0030200EB8220AA
:103A7000401CC91F8840CAE72DE9F843494C012280
:103A800010212046FCF796FD002220212046FCF75D
:103A900091FD3820FEF7B6FC0024FF20FEF7A2FCC3
:103AA000641CA4B20A2CF8D314250021084600F0A7
:103AB000FBF80446012802D06D1EADB2F5D23A4D96
:103AC0004FF00009012C85F800905ED14FF4D571BC
:103AD000082000F0E9F84FF47A7801280AD0002194
:103AE000A92000F0E1F84646012839D802202870C4
:103AF000A92738E000266F46FF20FEF773FCB85573
:103B0000761CB6B2042EF7D39DF8020001283CD1F2
:103B10009DF80300AA2838D146464FF08048414618
:103B2000A92000F0C1F8040002D0761EB6B2F6D289
:103B30005EB300213A2000F0B7F830BB0026FF202A
:103B4000FEF750FCB855761CB6B2042EF7D39DF89C
:103B50000000400601D5062000E00420287014E093
:103B60000120287007460021384600F09DF8040027
:103B700002D0761EB6B2F6D22EB14FF400711020EC
:103B800000F092F808B185F80090FFF71BFF0020C5
:103B9000FEF738FC287810B10020BDE8F8832046F5
:103BA000FBE7000000080140300100202DE9F04152
:103BB0000546164814460078062800D049024FF4FE
:103BC0000076012C17D0122000F06EF831462846FE
:103BD00000F01EF80746641E05F5007501D0002FA1
:103BE000F4D000210C2000F05FF800BFFFF7EAFEE0
:103BF0003846BDE8F081112000F056F80700F5D1F5
:103C00003146284600F004F80746EFE7300100206F
:103C10002DE9F0410E460546FE274FF6FF7401E000
:103C2000641EA4B2FF20FEF7DDFBB84202D0002CD8
:103C3000F6D100E034B90120BDE8F081FEF7D2FBF7
:103C400005F8010B761EB6B24FF0FF00F6D2FEF774
:103C5000C9FBFF20FEF7C6FB0020EDE770B50C4660
:103C6000054600F06DF8D8B92046FEF7BBFBFD2CE9
:103C700018D000244FF40076285DFEF7B3FB641CD7
:103C8000A4B2B442F8D3FF20FEF7ACFBFF20FEF74E
:103C9000A9FBFF20FEF7A6FB00F01F00052801D0BE
:103CA000012070BD002070BD70B5044601260D4690
:103CB000000607D504F07F0400213720FFF7F4FF4A
:103CC00001280ED80C2C0DD0FFF77CFE002210210D
:103CD0001A48FCF76FFC00F033F818B1FFF772FEDA
:103CE000FF2070BD44F04000FEF77CFB280EFEF77D
:103CF00079FBC5F30740FEF775FBC5F30720FEF718
:103D000071FBE8B2FEF76EFB3CB1082C07D03046E1
:103D1000FEF768FB0C2C0FD004E0952000E0872014
:103D2000FEF760FB0A24FF20FEF75CFB0106D8D5F6
:103D3000641EE4B2F7D270BDFF20F1E70008014035
:103D400070B500246FF07F45FF20FEF74BFBFF2886
:103D500004D0641CAC42F7D3012070BD002070BDBC
:103D60002DE9F04107461C481426154600780C46FC
:103D7000062800D04C02012D10D0012807D029467A
:103D80009720FFF791FF15B1761EF6B2F7D22146C4
:103D90001920FFF789FF040009D017E021461820F9
:103DA000FFF782FF040011D1FE2138460BE0FC2111
:103DB0003846FFF753FF6D1E07F5007701D0002846
:103DC000F5D0FD210020FFF749FF0446FFF7FAFD7B
:103DD0002046BDE8F0810000300100200080020292
:103DE0001F00000053544D202020202050726F648B
:103DF000756374202020202020202020302E303198
:103E0000000000000000000001020304060708098A
:103E1000000000030080830000000000000000009C
:103E20000600000000000000483E000800000020DE
:103E3000340100006C010008EC3E00083401002051
:103E40009C100000C80100081339271B0869041AD8
:103E500075041A9D041AC5041A19041A4504170496
:103E600003090412013202164083042A5726020174
:103E7000020301031A1A0313F1241B08CD041AFBD1
:103E8000041AFF041B03255019041AE30C13DC3D2C
:103E90001A083F1182105324F413592D1408F52CDD
:103EA0001B08BF08811AE1101AEB04C11A41201A3D
:103EB00035041A4D041A29041409022020080101AE
:103EC00004C0320904180A020806500507058102D9
:103ED000B02C070501070914202240292019070BDF
:0C3EE0001C0907204B0A06FC29B4C10095
:0400000508000131BD
:00000001FF
